{
  "abi": [
    {
      "inputs": [
        {
          "internalType": "uint256",
          "name": "minimum",
          "type": "uint256"
        },
        {
          "internalType": "address",
          "name": "creator",
          "type": "address"
        }
      ],
      "stateMutability": "nonpayable",
      "type": "constructor"
    },
    {
      "inputs": [
        {
          "internalType": "uint256",
          "name": "index",
          "type": "uint256"
        }
      ],
      "name": "approveRequest",
      "outputs": [],
      "stateMutability": "nonpayable",
      "type": "function"
    },
    {
      "inputs": [
        {
          "internalType": "address",
          "name": "",
          "type": "address"
        }
      ],
      "name": "approvers",
      "outputs": [
        {
          "internalType": "bool",
          "name": "",
          "type": "bool"
        }
      ],
      "stateMutability": "view",
      "type": "function"
    },
    {
      "inputs": [],
      "name": "approversCount",
      "outputs": [
        {
          "internalType": "uint256",
          "name": "",
          "type": "uint256"
        }
      ],
      "stateMutability": "view",
      "type": "function"
    },
    {
      "inputs": [],
      "name": "contribute",
      "outputs": [],
      "stateMutability": "payable",
      "type": "function"
    },
    {
      "inputs": [
        {
          "internalType": "string",
          "name": "description",
          "type": "string"
        },
        {
          "internalType": "uint256",
          "name": "value",
          "type": "uint256"
        },
        {
          "internalType": "address payable",
          "name": "recipient",
          "type": "address"
        }
      ],
      "name": "createRequest",
      "outputs": [],
      "stateMutability": "nonpayable",
      "type": "function"
    },
    {
      "inputs": [
        {
          "internalType": "uint256",
          "name": "index",
          "type": "uint256"
        }
      ],
      "name": "finalizeRequest",
      "outputs": [],
      "stateMutability": "nonpayable",
      "type": "function"
    },
    {
      "inputs": [],
      "name": "manager",
      "outputs": [
        {
          "internalType": "address",
          "name": "",
          "type": "address"
        }
      ],
      "stateMutability": "view",
      "type": "function"
    },
    {
      "inputs": [],
      "name": "minimumContribution",
      "outputs": [
        {
          "internalType": "uint256",
          "name": "",
          "type": "uint256"
        }
      ],
      "stateMutability": "view",
      "type": "function"
    },
    {
      "inputs": [],
      "name": "numRequests",
      "outputs": [
        {
          "internalType": "uint256",
          "name": "",
          "type": "uint256"
        }
      ],
      "stateMutability": "view",
      "type": "function"
    },
    {
      "inputs": [
        {
          "internalType": "uint256",
          "name": "",
          "type": "uint256"
        }
      ],
      "name": "requests",
      "outputs": [
        {
          "internalType": "string",
          "name": "description",
          "type": "string"
        },
        {
          "internalType": "uint256",
          "name": "value",
          "type": "uint256"
        },
        {
          "internalType": "address payable",
          "name": "recipient",
          "type": "address"
        },
        {
          "internalType": "bool",
          "name": "complete",
          "type": "bool"
        },
        {
          "internalType": "uint256",
          "name": "approvalCount",
          "type": "uint256"
        }
      ],
      "stateMutability": "view",
      "type": "function"
    }
  ],
  "devdoc": {
    "kind": "dev",
    "methods": {},
    "version": 1
  },
  "evm": {
    "assembly": "    /* \"Campaign.sol\":430:2593  contract Campaign {... */\n  mstore(0x40, 0x80)\n    /* \"Campaign.sol\":1234:1350  constructor(uint minimum, address creator) {... */\n  callvalue\n  dup1\n  iszero\n  tag_1\n  jumpi\n  0x00\n  dup1\n  revert\ntag_1:\n  pop\n  mload(0x40)\n  sub(codesize, bytecodeSize)\n  dup1\n  bytecodeSize\n  dup4\n  codecopy\n  dup2\n  dup2\n  add\n  0x40\n  mstore\n  dup2\n  add\n  swap1\n  tag_2\n  swap2\n  swap1\n  tag_3\n  jump\t// in\ntag_2:\n    /* \"Campaign.sol\":1297:1304  creator */\n  dup1\n    /* \"Campaign.sol\":1287:1294  manager */\n  0x02\n  0x00\n    /* \"Campaign.sol\":1287:1304  manager = creator */\n  0x0100\n  exp\n  dup2\n  sload\n  dup2\n  0xffffffffffffffffffffffffffffffffffffffff\n  mul\n  not\n  and\n  swap1\n  dup4\n  0xffffffffffffffffffffffffffffffffffffffff\n  and\n  mul\n  or\n  swap1\n  sstore\n  pop\n    /* \"Campaign.sol\":1336:1343  minimum */\n  dup2\n    /* \"Campaign.sol\":1314:1333  minimumContribution */\n  0x03\n    /* \"Campaign.sol\":1314:1343  minimumContribution = minimum */\n  dup2\n  swap1\n  sstore\n  pop\n    /* \"Campaign.sol\":1234:1350  constructor(uint minimum, address creator) {... */\n  pop\n  pop\n    /* \"Campaign.sol\":430:2593  contract Campaign {... */\n  jump(tag_6)\n    /* \"#utility.yul\":7:150   */\ntag_8:\n    /* \"#utility.yul\":64:69   */\n  0x00\n    /* \"#utility.yul\":95:101   */\n  dup2\n    /* \"#utility.yul\":89:102   */\n  mload\n    /* \"#utility.yul\":80:102   */\n  swap1\n  pop\n    /* \"#utility.yul\":111:144   */\n  tag_10\n    /* \"#utility.yul\":138:143   */\n  dup2\n    /* \"#utility.yul\":111:144   */\n  tag_11\n  jump\t// in\ntag_10:\n    /* \"#utility.yul\":70:150   */\n  swap3\n  swap2\n  pop\n  pop\n  jump\t// out\n    /* \"#utility.yul\":156:299   */\ntag_12:\n    /* \"#utility.yul\":213:218   */\n  0x00\n    /* \"#utility.yul\":244:250   */\n  dup2\n    /* \"#utility.yul\":238:251   */\n  mload\n    /* \"#utility.yul\":229:251   */\n  swap1\n  pop\n    /* \"#utility.yul\":260:293   */\n  tag_14\n    /* \"#utility.yul\":287:292   */\n  dup2\n    /* \"#utility.yul\":260:293   */\n  tag_15\n  jump\t// in\ntag_14:\n    /* \"#utility.yul\":219:299   */\n  swap3\n  swap2\n  pop\n  pop\n  jump\t// out\n    /* \"#utility.yul\":305:745   */\ntag_3:\n    /* \"#utility.yul\":384:390   */\n  0x00\n    /* \"#utility.yul\":392:398   */\n  dup1\n    /* \"#utility.yul\":441:443   */\n  0x40\n    /* \"#utility.yul\":429:438   */\n  dup4\n    /* \"#utility.yul\":420:427   */\n  dup6\n    /* \"#utility.yul\":416:439   */\n  sub\n    /* \"#utility.yul\":412:444   */\n  slt\n    /* \"#utility.yul\":409:411   */\n  iszero\n  tag_17\n  jumpi\n    /* \"#utility.yul\":457:458   */\n  0x00\n    /* \"#utility.yul\":454:455   */\n  dup1\n    /* \"#utility.yul\":447:459   */\n  revert\n    /* \"#utility.yul\":409:411   */\ntag_17:\n    /* \"#utility.yul\":500:501   */\n  0x00\n    /* \"#utility.yul\":525:589   */\n  tag_18\n    /* \"#utility.yul\":581:588   */\n  dup6\n    /* \"#utility.yul\":572:578   */\n  dup3\n    /* \"#utility.yul\":561:570   */\n  dup7\n    /* \"#utility.yul\":557:579   */\n  add\n    /* \"#utility.yul\":525:589   */\n  tag_12\n  jump\t// in\ntag_18:\n    /* \"#utility.yul\":515:589   */\n  swap3\n  pop\n    /* \"#utility.yul\":471:599   */\n  pop\n    /* \"#utility.yul\":638:640   */\n  0x20\n    /* \"#utility.yul\":664:728   */\n  tag_19\n    /* \"#utility.yul\":720:727   */\n  dup6\n    /* \"#utility.yul\":711:717   */\n  dup3\n    /* \"#utility.yul\":700:709   */\n  dup7\n    /* \"#utility.yul\":696:718   */\n  add\n    /* \"#utility.yul\":664:728   */\n  tag_8\n  jump\t// in\ntag_19:\n    /* \"#utility.yul\":654:728   */\n  swap2\n  pop\n    /* \"#utility.yul\":609:738   */\n  pop\n    /* \"#utility.yul\":399:745   */\n  swap3\n  pop\n  swap3\n  swap1\n  pop\n  jump\t// out\n    /* \"#utility.yul\":751:847   */\ntag_20:\n    /* \"#utility.yul\":788:795   */\n  0x00\n    /* \"#utility.yul\":817:841   */\n  tag_22\n    /* \"#utility.yul\":835:840   */\n  dup3\n    /* \"#utility.yul\":817:841   */\n  tag_23\n  jump\t// in\ntag_22:\n    /* \"#utility.yul\":806:841   */\n  swap1\n  pop\n    /* \"#utility.yul\":796:847   */\n  swap2\n  swap1\n  pop\n  jump\t// out\n    /* \"#utility.yul\":853:979   */\ntag_23:\n    /* \"#utility.yul\":890:897   */\n  0x00\n    /* \"#utility.yul\":930:972   */\n  0xffffffffffffffffffffffffffffffffffffffff\n    /* \"#utility.yul\":923:928   */\n  dup3\n    /* \"#utility.yul\":919:973   */\n  and\n    /* \"#utility.yul\":908:973   */\n  swap1\n  pop\n    /* \"#utility.yul\":898:979   */\n  swap2\n  swap1\n  pop\n  jump\t// out\n    /* \"#utility.yul\":985:1062   */\ntag_25:\n    /* \"#utility.yul\":1022:1029   */\n  0x00\n    /* \"#utility.yul\":1051:1056   */\n  dup2\n    /* \"#utility.yul\":1040:1056   */\n  swap1\n  pop\n    /* \"#utility.yul\":1030:1062   */\n  swap2\n  swap1\n  pop\n  jump\t// out\n    /* \"#utility.yul\":1068:1190   */\ntag_11:\n    /* \"#utility.yul\":1141:1165   */\n  tag_28\n    /* \"#utility.yul\":1159:1164   */\n  dup2\n    /* \"#utility.yul\":1141:1165   */\n  tag_20\n  jump\t// in\ntag_28:\n    /* \"#utility.yul\":1134:1139   */\n  dup2\n    /* \"#utility.yul\":1131:1166   */\n  eq\n    /* \"#utility.yul\":1121:1123   */\n  tag_29\n  jumpi\n    /* \"#utility.yul\":1180:1181   */\n  0x00\n    /* \"#utility.yul\":1177:1178   */\n  dup1\n    /* \"#utility.yul\":1170:1182   */\n  revert\n    /* \"#utility.yul\":1121:1123   */\ntag_29:\n    /* \"#utility.yul\":1111:1190   */\n  pop\n  jump\t// out\n    /* \"#utility.yul\":1196:1318   */\ntag_15:\n    /* \"#utility.yul\":1269:1293   */\n  tag_31\n    /* \"#utility.yul\":1287:1292   */\n  dup2\n    /* \"#utility.yul\":1269:1293   */\n  tag_25\n  jump\t// in\ntag_31:\n    /* \"#utility.yul\":1262:1267   */\n  dup2\n    /* \"#utility.yul\":1259:1294   */\n  eq\n    /* \"#utility.yul\":1249:1251   */\n  tag_32\n  jumpi\n    /* \"#utility.yul\":1308:1309   */\n  0x00\n    /* \"#utility.yul\":1305:1306   */\n  dup1\n    /* \"#utility.yul\":1298:1310   */\n  revert\n    /* \"#utility.yul\":1249:1251   */\ntag_32:\n    /* \"#utility.yul\":1239:1318   */\n  pop\n  jump\t// out\n    /* \"Campaign.sol\":430:2593  contract Campaign {... */\ntag_6:\n  dataSize(sub_0)\n  dup1\n  dataOffset(sub_0)\n  0x00\n  codecopy\n  0x00\n  return\nstop\n\nsub_0: assembly {\n        /* \"Campaign.sol\":430:2593  contract Campaign {... */\n      mstore(0x40, 0x80)\n      jumpi(tag_1, lt(calldatasize, 0x04))\n      shr(0xe0, calldataload(0x00))\n      dup1\n      0x8a9cfd55\n      gt\n      tag_12\n      jumpi\n      dup1\n      0x8a9cfd55\n      eq\n      tag_7\n      jumpi\n      dup1\n      0x937e09b1\n      eq\n      tag_8\n      jumpi\n      dup1\n      0x9fb42b1f\n      eq\n      tag_9\n      jumpi\n      dup1\n      0xd7bb99ba\n      eq\n      tag_10\n      jumpi\n      dup1\n      0xd7d1bbdb\n      eq\n      tag_11\n      jumpi\n      jump(tag_1)\n    tag_12:\n      dup1\n      0x03441006\n      eq\n      tag_2\n      jumpi\n      dup1\n      0x0a144391\n      eq\n      tag_3\n      jumpi\n      dup1\n      0x481c6a75\n      eq\n      tag_4\n      jumpi\n      dup1\n      0x81d12c58\n      eq\n      tag_5\n      jumpi\n      dup1\n      0x82fde093\n      eq\n      tag_6\n      jumpi\n    tag_1:\n      0x00\n      dup1\n      revert\n        /* \"Campaign.sol\":2295:2591  function finalizeRequest(uint index) public restricted {... */\n    tag_2:\n      callvalue\n      dup1\n      iszero\n      tag_13\n      jumpi\n      0x00\n      dup1\n      revert\n    tag_13:\n      pop\n      tag_14\n      0x04\n      dup1\n      calldatasize\n      sub\n      dup2\n      add\n      swap1\n      tag_15\n      swap2\n      swap1\n      tag_16\n      jump\t// in\n    tag_15:\n      tag_17\n      jump\t// in\n    tag_14:\n      stop\n        /* \"Campaign.sol\":1060:1101  mapping(address => bool) public approvers */\n    tag_3:\n      callvalue\n      dup1\n      iszero\n      tag_18\n      jumpi\n      0x00\n      dup1\n      revert\n    tag_18:\n      pop\n      tag_19\n      0x04\n      dup1\n      calldatasize\n      sub\n      dup2\n      add\n      swap1\n      tag_20\n      swap2\n      swap1\n      tag_21\n      jump\t// in\n    tag_20:\n      tag_22\n      jump\t// in\n    tag_19:\n      mload(0x40)\n      tag_23\n      swap2\n      swap1\n      tag_24\n      jump\t// in\n    tag_23:\n      mload(0x40)\n      dup1\n      swap2\n      sub\n      swap1\n      return\n        /* \"Campaign.sol\":995:1017  address public manager */\n    tag_4:\n      callvalue\n      dup1\n      iszero\n      tag_25\n      jumpi\n      0x00\n      dup1\n      revert\n    tag_25:\n      pop\n      tag_26\n      tag_27\n      jump\t// in\n    tag_26:\n      mload(0x40)\n      tag_28\n      swap2\n      swap1\n      tag_29\n      jump\t// in\n    tag_28:\n      mload(0x40)\n      dup1\n      swap2\n      sub\n      swap1\n      return\n        /* \"Campaign.sol\":943:984  mapping (uint => Request) public requests */\n    tag_5:\n      callvalue\n      dup1\n      iszero\n      tag_30\n      jumpi\n      0x00\n      dup1\n      revert\n    tag_30:\n      pop\n      tag_31\n      0x04\n      dup1\n      calldatasize\n      sub\n      dup2\n      add\n      swap1\n      tag_32\n      swap2\n      swap1\n      tag_16\n      jump\t// in\n    tag_32:\n      tag_33\n      jump\t// in\n    tag_31:\n      mload(0x40)\n      tag_34\n      swap6\n      swap5\n      swap4\n      swap3\n      swap2\n      swap1\n      tag_35\n      jump\t// in\n    tag_34:\n      mload(0x40)\n      dup1\n      swap2\n      sub\n      swap1\n      return\n        /* \"Campaign.sol\":1107:1133  uint public approversCount */\n    tag_6:\n      callvalue\n      dup1\n      iszero\n      tag_36\n      jumpi\n      0x00\n      dup1\n      revert\n    tag_36:\n      pop\n      tag_37\n      tag_38\n      jump\t// in\n    tag_37:\n      mload(0x40)\n      tag_39\n      swap2\n      swap1\n      tag_40\n      jump\t// in\n    tag_39:\n      mload(0x40)\n      dup1\n      swap2\n      sub\n      swap1\n      return\n        /* \"Campaign.sol\":1526:2000  function createRequest(string memory description, uint value, address payable recipient) public restricted {... */\n    tag_7:\n      callvalue\n      dup1\n      iszero\n      tag_41\n      jumpi\n      0x00\n      dup1\n      revert\n    tag_41:\n      pop\n      tag_42\n      0x04\n      dup1\n      calldatasize\n      sub\n      dup2\n      add\n      swap1\n      tag_43\n      swap2\n      swap1\n      tag_44\n      jump\t// in\n    tag_43:\n      tag_45\n      jump\t// in\n    tag_42:\n      stop\n        /* \"Campaign.sol\":1023:1054  uint public minimumContribution */\n    tag_8:\n      callvalue\n      dup1\n      iszero\n      tag_46\n      jumpi\n      0x00\n      dup1\n      revert\n    tag_46:\n      pop\n      tag_47\n      tag_48\n      jump\t// in\n    tag_47:\n      mload(0x40)\n      tag_49\n      swap2\n      swap1\n      tag_40\n      jump\t// in\n    tag_49:\n      mload(0x40)\n      dup1\n      swap2\n      sub\n      swap1\n      return\n        /* \"Campaign.sol\":914:937  uint public numRequests */\n    tag_9:\n      callvalue\n      dup1\n      iszero\n      tag_50\n      jumpi\n      0x00\n      dup1\n      revert\n    tag_50:\n      pop\n      tag_51\n      tag_52\n      jump\t// in\n    tag_51:\n      mload(0x40)\n      tag_53\n      swap2\n      swap1\n      tag_40\n      jump\t// in\n    tag_53:\n      mload(0x40)\n      dup1\n      swap2\n      sub\n      swap1\n      return\n        /* \"Campaign.sol\":1360:1516  function contribute() public payable {... */\n    tag_10:\n      tag_54\n      tag_55\n      jump\t// in\n    tag_54:\n      stop\n        /* \"Campaign.sol\":2010:2285  function approveRequest(uint index) public {... */\n    tag_11:\n      callvalue\n      dup1\n      iszero\n      tag_56\n      jumpi\n      0x00\n      dup1\n      revert\n    tag_56:\n      pop\n      tag_57\n      0x04\n      dup1\n      calldatasize\n      sub\n      dup2\n      add\n      swap1\n      tag_58\n      swap2\n      swap1\n      tag_16\n      jump\t// in\n    tag_58:\n      tag_59\n      jump\t// in\n    tag_57:\n      stop\n        /* \"Campaign.sol\":2295:2591  function finalizeRequest(uint index) public restricted {... */\n    tag_17:\n        /* \"Campaign.sol\":1198:1205  manager */\n      0x02\n      0x00\n      swap1\n      sload\n      swap1\n      0x0100\n      exp\n      swap1\n      div\n      0xffffffffffffffffffffffffffffffffffffffff\n      and\n        /* \"Campaign.sol\":1184:1205  msg.sender == manager */\n      0xffffffffffffffffffffffffffffffffffffffff\n      and\n        /* \"Campaign.sol\":1184:1194  msg.sender */\n      caller\n        /* \"Campaign.sol\":1184:1205  msg.sender == manager */\n      0xffffffffffffffffffffffffffffffffffffffff\n      and\n      eq\n        /* \"Campaign.sol\":1176:1206  require(msg.sender == manager) */\n      tag_61\n      jumpi\n      0x00\n      dup1\n      revert\n    tag_61:\n        /* \"Campaign.sol\":2360:2383  Request storage request */\n      0x00\n        /* \"Campaign.sol\":2386:2394  requests */\n      0x01\n        /* \"Campaign.sol\":2386:2401  requests[index] */\n      0x00\n        /* \"Campaign.sol\":2395:2400  index */\n      dup4\n        /* \"Campaign.sol\":2386:2401  requests[index] */\n      dup2\n      mstore\n      0x20\n      add\n      swap1\n      dup2\n      mstore\n      0x20\n      add\n      0x00\n      keccak256\n        /* \"Campaign.sol\":2360:2401  Request storage request = requests[index] */\n      swap1\n      pop\n        /* \"Campaign.sol\":2461:2462  2 */\n      0x02\n        /* \"Campaign.sol\":2444:2458  approversCount */\n      sload(0x05)\n        /* \"Campaign.sol\":2444:2462  approversCount / 2 */\n      tag_63\n      swap2\n      swap1\n      tag_64\n      jump\t// in\n    tag_63:\n        /* \"Campaign.sol\":2419:2426  request */\n      dup2\n        /* \"Campaign.sol\":2419:2440  request.approvalCount */\n      0x03\n      add\n      sload\n        /* \"Campaign.sol\":2419:2463  request.approvalCount > (approversCount / 2) */\n      gt\n        /* \"Campaign.sol\":2411:2464  require(request.approvalCount > (approversCount / 2)) */\n      tag_65\n      jumpi\n      0x00\n      dup1\n      revert\n    tag_65:\n        /* \"Campaign.sol\":2483:2490  request */\n      dup1\n        /* \"Campaign.sol\":2483:2499  request.complete */\n      0x02\n      add\n      0x14\n      swap1\n      sload\n      swap1\n      0x0100\n      exp\n      swap1\n      div\n      0xff\n      and\n        /* \"Campaign.sol\":2482:2499  !request.complete */\n      iszero\n        /* \"Campaign.sol\":2474:2500  require(!request.complete) */\n      tag_66\n      jumpi\n      0x00\n      dup1\n      revert\n    tag_66:\n        /* \"Campaign.sol\":2510:2517  request */\n      dup1\n        /* \"Campaign.sol\":2510:2527  request.recipient */\n      0x02\n      add\n      0x00\n      swap1\n      sload\n      swap1\n      0x0100\n      exp\n      swap1\n      div\n      0xffffffffffffffffffffffffffffffffffffffff\n      and\n        /* \"Campaign.sol\":2510:2536  request.recipient.transfer */\n      0xffffffffffffffffffffffffffffffffffffffff\n      and\n        /* \"Campaign.sol\":2510:2551  request.recipient.transfer(request.value) */\n      0x08fc\n        /* \"Campaign.sol\":2537:2544  request */\n      dup3\n        /* \"Campaign.sol\":2537:2550  request.value */\n      0x01\n      add\n      sload\n        /* \"Campaign.sol\":2510:2551  request.recipient.transfer(request.value) */\n      swap1\n      dup2\n      iszero\n      mul\n      swap1\n      mload(0x40)\n      0x00\n      mload(0x40)\n      dup1\n      dup4\n      sub\n      dup2\n      dup6\n      dup9\n      dup9\n      call\n      swap4\n      pop\n      pop\n      pop\n      pop\n      iszero\n      dup1\n      iszero\n      tag_68\n      jumpi\n      returndatasize\n      0x00\n      dup1\n      returndatacopy\n      revert(0x00, returndatasize)\n    tag_68:\n      pop\n        /* \"Campaign.sol\":2580:2584  true */\n      0x01\n        /* \"Campaign.sol\":2561:2568  request */\n      dup2\n        /* \"Campaign.sol\":2561:2577  request.complete */\n      0x02\n      add\n      0x14\n        /* \"Campaign.sol\":2561:2584  request.complete = true */\n      0x0100\n      exp\n      dup2\n      sload\n      dup2\n      0xff\n      mul\n      not\n      and\n      swap1\n      dup4\n      iszero\n      iszero\n      mul\n      or\n      swap1\n      sstore\n      pop\n        /* \"Campaign.sol\":1216:1217  _ */\n      pop\n        /* \"Campaign.sol\":2295:2591  function finalizeRequest(uint index) public restricted {... */\n      pop\n      jump\t// out\n        /* \"Campaign.sol\":1060:1101  mapping(address => bool) public approvers */\n    tag_22:\n      mstore(0x20, 0x04)\n      dup1\n      0x00\n      mstore\n      keccak256(0x00, 0x40)\n      0x00\n      swap2\n      pop\n      sload\n      swap1\n      0x0100\n      exp\n      swap1\n      div\n      0xff\n      and\n      dup2\n      jump\t// out\n        /* \"Campaign.sol\":995:1017  address public manager */\n    tag_27:\n      0x02\n      0x00\n      swap1\n      sload\n      swap1\n      0x0100\n      exp\n      swap1\n      div\n      0xffffffffffffffffffffffffffffffffffffffff\n      and\n      dup2\n      jump\t// out\n        /* \"Campaign.sol\":943:984  mapping (uint => Request) public requests */\n    tag_33:\n      mstore(0x20, 0x01)\n      dup1\n      0x00\n      mstore\n      keccak256(0x00, 0x40)\n      0x00\n      swap2\n      pop\n      swap1\n      pop\n      dup1\n      0x00\n      add\n      dup1\n      sload\n      tag_69\n      swap1\n      tag_70\n      jump\t// in\n    tag_69:\n      dup1\n      0x1f\n      add\n      0x20\n      dup1\n      swap2\n      div\n      mul\n      0x20\n      add\n      mload(0x40)\n      swap1\n      dup2\n      add\n      0x40\n      mstore\n      dup1\n      swap3\n      swap2\n      swap1\n      dup2\n      dup2\n      mstore\n      0x20\n      add\n      dup3\n      dup1\n      sload\n      tag_71\n      swap1\n      tag_70\n      jump\t// in\n    tag_71:\n      dup1\n      iszero\n      tag_72\n      jumpi\n      dup1\n      0x1f\n      lt\n      tag_73\n      jumpi\n      0x0100\n      dup1\n      dup4\n      sload\n      div\n      mul\n      dup4\n      mstore\n      swap2\n      0x20\n      add\n      swap2\n      jump(tag_72)\n    tag_73:\n      dup3\n      add\n      swap2\n      swap1\n      0x00\n      mstore\n      keccak256(0x00, 0x20)\n      swap1\n    tag_74:\n      dup2\n      sload\n      dup2\n      mstore\n      swap1\n      0x01\n      add\n      swap1\n      0x20\n      add\n      dup1\n      dup4\n      gt\n      tag_74\n      jumpi\n      dup3\n      swap1\n      sub\n      0x1f\n      and\n      dup3\n      add\n      swap2\n    tag_72:\n      pop\n      pop\n      pop\n      pop\n      pop\n      swap1\n      dup1\n      0x01\n      add\n      sload\n      swap1\n      dup1\n      0x02\n      add\n      0x00\n      swap1\n      sload\n      swap1\n      0x0100\n      exp\n      swap1\n      div\n      0xffffffffffffffffffffffffffffffffffffffff\n      and\n      swap1\n      dup1\n      0x02\n      add\n      0x14\n      swap1\n      sload\n      swap1\n      0x0100\n      exp\n      swap1\n      div\n      0xff\n      and\n      swap1\n      dup1\n      0x03\n      add\n      sload\n      swap1\n      pop\n      dup6\n      jump\t// out\n        /* \"Campaign.sol\":1107:1133  uint public approversCount */\n    tag_38:\n      sload(0x05)\n      dup2\n      jump\t// out\n        /* \"Campaign.sol\":1526:2000  function createRequest(string memory description, uint value, address payable recipient) public restricted {... */\n    tag_45:\n        /* \"Campaign.sol\":1198:1205  manager */\n      0x02\n      0x00\n      swap1\n      sload\n      swap1\n      0x0100\n      exp\n      swap1\n      div\n      0xffffffffffffffffffffffffffffffffffffffff\n      and\n        /* \"Campaign.sol\":1184:1205  msg.sender == manager */\n      0xffffffffffffffffffffffffffffffffffffffff\n      and\n        /* \"Campaign.sol\":1184:1194  msg.sender */\n      caller\n        /* \"Campaign.sol\":1184:1205  msg.sender == manager */\n      0xffffffffffffffffffffffffffffffffffffffff\n      and\n      eq\n        /* \"Campaign.sol\":1176:1206  require(msg.sender == manager) */\n      tag_76\n      jumpi\n      0x00\n      dup1\n      revert\n    tag_76:\n        /* \"Campaign.sol\":1643:1669  Request storage newRequest */\n      0x00\n        /* \"Campaign.sol\":1672:1680  requests */\n      0x01\n        /* \"Campaign.sol\":1672:1695  requests[numRequests++] */\n      0x00\n        /* \"Campaign.sol\":1681:1692  numRequests */\n      dup1\n      0x00\n        /* \"Campaign.sol\":1681:1694  numRequests++ */\n      dup2\n      sload\n      dup1\n      swap3\n      swap2\n      swap1\n      tag_78\n      swap1\n      tag_79\n      jump\t// in\n    tag_78:\n      swap2\n      swap1\n      pop\n      sstore\n        /* \"Campaign.sol\":1672:1695  requests[numRequests++] */\n      dup2\n      mstore\n      0x20\n      add\n      swap1\n      dup2\n      mstore\n      0x20\n      add\n      0x00\n      keccak256\n        /* \"Campaign.sol\":1643:1695  Request storage newRequest = requests[numRequests++] */\n      swap1\n      pop\n        /* \"Campaign.sol\":1730:1741  description */\n      dup4\n        /* \"Campaign.sol\":1705:1715  newRequest */\n      dup2\n        /* \"Campaign.sol\":1705:1727  newRequest.description */\n      0x00\n      add\n        /* \"Campaign.sol\":1705:1741  newRequest.description = description */\n      swap1\n      dup1\n      mload\n      swap1\n      0x20\n      add\n      swap1\n      tag_80\n      swap3\n      swap2\n      swap1\n      tag_81\n      jump\t// in\n    tag_80:\n      pop\n        /* \"Campaign.sol\":1770:1775  value */\n      dup3\n        /* \"Campaign.sol\":1751:1761  newRequest */\n      dup2\n        /* \"Campaign.sol\":1751:1767  newRequest.value */\n      0x01\n      add\n        /* \"Campaign.sol\":1751:1775  newRequest.value = value */\n      dup2\n      swap1\n      sstore\n      pop\n        /* \"Campaign.sol\":1808:1817  recipient */\n      dup2\n        /* \"Campaign.sol\":1785:1795  newRequest */\n      dup2\n        /* \"Campaign.sol\":1785:1805  newRequest.recipient */\n      0x02\n      add\n      0x00\n        /* \"Campaign.sol\":1785:1817  newRequest.recipient = recipient */\n      0x0100\n      exp\n      dup2\n      sload\n      dup2\n      0xffffffffffffffffffffffffffffffffffffffff\n      mul\n      not\n      and\n      swap1\n      dup4\n      0xffffffffffffffffffffffffffffffffffffffff\n      and\n      mul\n      or\n      swap1\n      sstore\n      pop\n        /* \"Campaign.sol\":1849:1854  false */\n      0x00\n        /* \"Campaign.sol\":1827:1837  newRequest */\n      dup2\n        /* \"Campaign.sol\":1827:1846  newRequest.complete */\n      0x02\n      add\n      0x14\n        /* \"Campaign.sol\":1827:1854  newRequest.complete = false */\n      0x0100\n      exp\n      dup2\n      sload\n      dup2\n      0xff\n      mul\n      not\n      and\n      swap1\n      dup4\n      iszero\n      iszero\n      mul\n      or\n      swap1\n      sstore\n      pop\n        /* \"Campaign.sol\":1891:1892  0 */\n      0x00\n        /* \"Campaign.sol\":1864:1874  newRequest */\n      dup2\n        /* \"Campaign.sol\":1864:1888  newRequest.approvalCount */\n      0x03\n      add\n        /* \"Campaign.sol\":1864:1892  newRequest.approvalCount = 0 */\n      dup2\n      swap1\n      sstore\n      pop\n        /* \"Campaign.sol\":1216:1217  _ */\n      pop\n        /* \"Campaign.sol\":1526:2000  function createRequest(string memory description, uint value, address payable recipient) public restricted {... */\n      pop\n      pop\n      pop\n      jump\t// out\n        /* \"Campaign.sol\":1023:1054  uint public minimumContribution */\n    tag_48:\n      sload(0x03)\n      dup2\n      jump\t// out\n        /* \"Campaign.sol\":914:937  uint public numRequests */\n    tag_52:\n      sload(0x00)\n      dup2\n      jump\t// out\n        /* \"Campaign.sol\":1360:1516  function contribute() public payable {... */\n    tag_55:\n        /* \"Campaign.sol\":1425:1444  minimumContribution */\n      sload(0x03)\n        /* \"Campaign.sol\":1415:1424  msg.value */\n      callvalue\n        /* \"Campaign.sol\":1415:1444  msg.value>minimumContribution */\n      gt\n        /* \"Campaign.sol\":1407:1445  require(msg.value>minimumContribution) */\n      tag_83\n      jumpi\n      0x00\n      dup1\n      revert\n    tag_83:\n        /* \"Campaign.sol\":1479:1483  true */\n      0x01\n        /* \"Campaign.sol\":1455:1464  approvers */\n      0x04\n        /* \"Campaign.sol\":1455:1476  approvers[msg.sender] */\n      0x00\n        /* \"Campaign.sol\":1465:1475  msg.sender */\n      caller\n        /* \"Campaign.sol\":1455:1476  approvers[msg.sender] */\n      0xffffffffffffffffffffffffffffffffffffffff\n      and\n      0xffffffffffffffffffffffffffffffffffffffff\n      and\n      dup2\n      mstore\n      0x20\n      add\n      swap1\n      dup2\n      mstore\n      0x20\n      add\n      0x00\n      keccak256\n      0x00\n        /* \"Campaign.sol\":1455:1483  approvers[msg.sender] = true */\n      0x0100\n      exp\n      dup2\n      sload\n      dup2\n      0xff\n      mul\n      not\n      and\n      swap1\n      dup4\n      iszero\n      iszero\n      mul\n      or\n      swap1\n      sstore\n      pop\n        /* \"Campaign.sol\":1493:1507  approversCount */\n      0x05\n      0x00\n        /* \"Campaign.sol\":1493:1509  approversCount++ */\n      dup2\n      sload\n      dup1\n      swap3\n      swap2\n      swap1\n      tag_84\n      swap1\n      tag_79\n      jump\t// in\n    tag_84:\n      swap2\n      swap1\n      pop\n      sstore\n      pop\n        /* \"Campaign.sol\":1360:1516  function contribute() public payable {... */\n      jump\t// out\n        /* \"Campaign.sol\":2010:2285  function approveRequest(uint index) public {... */\n    tag_59:\n        /* \"Campaign.sol\":2063:2086  Request storage request */\n      0x00\n        /* \"Campaign.sol\":2089:2097  requests */\n      0x01\n        /* \"Campaign.sol\":2089:2104  requests[index] */\n      0x00\n        /* \"Campaign.sol\":2098:2103  index */\n      dup4\n        /* \"Campaign.sol\":2089:2104  requests[index] */\n      dup2\n      mstore\n      0x20\n      add\n      swap1\n      dup2\n      mstore\n      0x20\n      add\n      0x00\n      keccak256\n        /* \"Campaign.sol\":2063:2104  Request storage request = requests[index] */\n      swap1\n      pop\n        /* \"Campaign.sol\":2241:2245  true */\n      0x01\n        /* \"Campaign.sol\":2209:2216  request */\n      dup2\n        /* \"Campaign.sol\":2209:2226  request.approvals */\n      0x04\n      add\n        /* \"Campaign.sol\":2209:2238  request.approvals[msg.sender] */\n      0x00\n        /* \"Campaign.sol\":2227:2237  msg.sender */\n      caller\n        /* \"Campaign.sol\":2209:2238  request.approvals[msg.sender] */\n      0xffffffffffffffffffffffffffffffffffffffff\n      and\n      0xffffffffffffffffffffffffffffffffffffffff\n      and\n      dup2\n      mstore\n      0x20\n      add\n      swap1\n      dup2\n      mstore\n      0x20\n      add\n      0x00\n      keccak256\n      0x00\n        /* \"Campaign.sol\":2209:2245  request.approvals[msg.sender] = true */\n      0x0100\n      exp\n      dup2\n      sload\n      dup2\n      0xff\n      mul\n      not\n      and\n      swap1\n      dup4\n      iszero\n      iszero\n      mul\n      or\n      swap1\n      sstore\n      pop\n        /* \"Campaign.sol\":2255:2262  request */\n      dup1\n        /* \"Campaign.sol\":2255:2276  request.approvalCount */\n      0x03\n      add\n      0x00\n        /* \"Campaign.sol\":2255:2278  request.approvalCount++ */\n      dup2\n      sload\n      dup1\n      swap3\n      swap2\n      swap1\n      tag_86\n      swap1\n      tag_79\n      jump\t// in\n    tag_86:\n      swap2\n      swap1\n      pop\n      sstore\n      pop\n        /* \"Campaign.sol\":2010:2285  function approveRequest(uint index) public {... */\n      pop\n      pop\n      jump\t// out\n    tag_81:\n      dup3\n      dup1\n      sload\n      tag_87\n      swap1\n      tag_70\n      jump\t// in\n    tag_87:\n      swap1\n      0x00\n      mstore\n      keccak256(0x00, 0x20)\n      swap1\n      0x1f\n      add\n      0x20\n      swap1\n      div\n      dup2\n      add\n      swap3\n      dup3\n      tag_89\n      jumpi\n      0x00\n      dup6\n      sstore\n      jump(tag_88)\n    tag_89:\n      dup3\n      0x1f\n      lt\n      tag_90\n      jumpi\n      dup1\n      mload\n      not(0xff)\n      and\n      dup4\n      dup1\n      add\n      or\n      dup6\n      sstore\n      jump(tag_88)\n    tag_90:\n      dup3\n      dup1\n      add\n      0x01\n      add\n      dup6\n      sstore\n      dup3\n      iszero\n      tag_88\n      jumpi\n      swap2\n      dup3\n      add\n    tag_91:\n      dup3\n      dup2\n      gt\n      iszero\n      tag_92\n      jumpi\n      dup3\n      mload\n      dup3\n      sstore\n      swap2\n      0x20\n      add\n      swap2\n      swap1\n      0x01\n      add\n      swap1\n      jump(tag_91)\n    tag_92:\n    tag_88:\n      pop\n      swap1\n      pop\n      tag_93\n      swap2\n      swap1\n      tag_94\n      jump\t// in\n    tag_93:\n      pop\n      swap1\n      jump\t// out\n    tag_94:\n    tag_95:\n      dup1\n      dup3\n      gt\n      iszero\n      tag_96\n      jumpi\n      0x00\n      dup2\n      0x00\n      swap1\n      sstore\n      pop\n      0x01\n      add\n      jump(tag_95)\n    tag_96:\n      pop\n      swap1\n      jump\t// out\n        /* \"#utility.yul\":7:352   */\n    tag_98:\n        /* \"#utility.yul\":85:90   */\n      0x00\n        /* \"#utility.yul\":110:176   */\n      tag_100\n        /* \"#utility.yul\":126:175   */\n      tag_101\n        /* \"#utility.yul\":168:174   */\n      dup5\n        /* \"#utility.yul\":126:175   */\n      tag_102\n      jump\t// in\n    tag_101:\n        /* \"#utility.yul\":110:176   */\n      tag_103\n      jump\t// in\n    tag_100:\n        /* \"#utility.yul\":101:176   */\n      swap1\n      pop\n        /* \"#utility.yul\":199:205   */\n      dup3\n        /* \"#utility.yul\":192:197   */\n      dup2\n        /* \"#utility.yul\":185:206   */\n      mstore\n        /* \"#utility.yul\":237:241   */\n      0x20\n        /* \"#utility.yul\":230:235   */\n      dup2\n        /* \"#utility.yul\":226:242   */\n      add\n        /* \"#utility.yul\":275:278   */\n      dup5\n        /* \"#utility.yul\":266:272   */\n      dup5\n        /* \"#utility.yul\":261:264   */\n      dup5\n        /* \"#utility.yul\":257:273   */\n      add\n        /* \"#utility.yul\":254:279   */\n      gt\n        /* \"#utility.yul\":251:253   */\n      iszero\n      tag_104\n      jumpi\n        /* \"#utility.yul\":292:293   */\n      0x00\n        /* \"#utility.yul\":289:290   */\n      dup1\n        /* \"#utility.yul\":282:294   */\n      revert\n        /* \"#utility.yul\":251:253   */\n    tag_104:\n        /* \"#utility.yul\":305:346   */\n      tag_105\n        /* \"#utility.yul\":339:345   */\n      dup5\n        /* \"#utility.yul\":334:337   */\n      dup3\n        /* \"#utility.yul\":329:332   */\n      dup6\n        /* \"#utility.yul\":305:346   */\n      tag_106\n      jump\t// in\n    tag_105:\n        /* \"#utility.yul\":91:352   */\n      pop\n      swap4\n      swap3\n      pop\n      pop\n      pop\n      jump\t// out\n        /* \"#utility.yul\":358:497   */\n    tag_107:\n        /* \"#utility.yul\":404:409   */\n      0x00\n        /* \"#utility.yul\":442:448   */\n      dup2\n        /* \"#utility.yul\":429:449   */\n      calldataload\n        /* \"#utility.yul\":420:449   */\n      swap1\n      pop\n        /* \"#utility.yul\":458:491   */\n      tag_109\n        /* \"#utility.yul\":485:490   */\n      dup2\n        /* \"#utility.yul\":458:491   */\n      tag_110\n      jump\t// in\n    tag_109:\n        /* \"#utility.yul\":410:497   */\n      swap3\n      swap2\n      pop\n      pop\n      jump\t// out\n        /* \"#utility.yul\":503:658   */\n    tag_111:\n        /* \"#utility.yul\":557:562   */\n      0x00\n        /* \"#utility.yul\":595:601   */\n      dup2\n        /* \"#utility.yul\":582:602   */\n      calldataload\n        /* \"#utility.yul\":573:602   */\n      swap1\n      pop\n        /* \"#utility.yul\":611:652   */\n      tag_113\n        /* \"#utility.yul\":646:651   */\n      dup2\n        /* \"#utility.yul\":611:652   */\n      tag_114\n      jump\t// in\n    tag_113:\n        /* \"#utility.yul\":563:658   */\n      swap3\n      swap2\n      pop\n      pop\n      jump\t// out\n        /* \"#utility.yul\":678:951   */\n    tag_115:\n        /* \"#utility.yul\":734:739   */\n      0x00\n        /* \"#utility.yul\":783:786   */\n      dup3\n        /* \"#utility.yul\":776:780   */\n      0x1f\n        /* \"#utility.yul\":768:774   */\n      dup4\n        /* \"#utility.yul\":764:781   */\n      add\n        /* \"#utility.yul\":760:787   */\n      slt\n        /* \"#utility.yul\":750:752   */\n      tag_117\n      jumpi\n        /* \"#utility.yul\":801:802   */\n      0x00\n        /* \"#utility.yul\":798:799   */\n      dup1\n        /* \"#utility.yul\":791:803   */\n      revert\n        /* \"#utility.yul\":750:752   */\n    tag_117:\n        /* \"#utility.yul\":841:847   */\n      dup2\n        /* \"#utility.yul\":828:848   */\n      calldataload\n        /* \"#utility.yul\":866:945   */\n      tag_118\n        /* \"#utility.yul\":941:944   */\n      dup5\n        /* \"#utility.yul\":933:939   */\n      dup3\n        /* \"#utility.yul\":926:930   */\n      0x20\n        /* \"#utility.yul\":918:924   */\n      dup7\n        /* \"#utility.yul\":914:931   */\n      add\n        /* \"#utility.yul\":866:945   */\n      tag_98\n      jump\t// in\n    tag_118:\n        /* \"#utility.yul\":857:945   */\n      swap2\n      pop\n        /* \"#utility.yul\":740:951   */\n      pop\n      swap3\n      swap2\n      pop\n      pop\n      jump\t// out\n        /* \"#utility.yul\":957:1096   */\n    tag_119:\n        /* \"#utility.yul\":1003:1008   */\n      0x00\n        /* \"#utility.yul\":1041:1047   */\n      dup2\n        /* \"#utility.yul\":1028:1048   */\n      calldataload\n        /* \"#utility.yul\":1019:1048   */\n      swap1\n      pop\n        /* \"#utility.yul\":1057:1090   */\n      tag_121\n        /* \"#utility.yul\":1084:1089   */\n      dup2\n        /* \"#utility.yul\":1057:1090   */\n      tag_122\n      jump\t// in\n    tag_121:\n        /* \"#utility.yul\":1009:1096   */\n      swap3\n      swap2\n      pop\n      pop\n      jump\t// out\n        /* \"#utility.yul\":1102:1364   */\n    tag_21:\n        /* \"#utility.yul\":1161:1167   */\n      0x00\n        /* \"#utility.yul\":1210:1212   */\n      0x20\n        /* \"#utility.yul\":1198:1207   */\n      dup3\n        /* \"#utility.yul\":1189:1196   */\n      dup5\n        /* \"#utility.yul\":1185:1208   */\n      sub\n        /* \"#utility.yul\":1181:1213   */\n      slt\n        /* \"#utility.yul\":1178:1180   */\n      iszero\n      tag_124\n      jumpi\n        /* \"#utility.yul\":1226:1227   */\n      0x00\n        /* \"#utility.yul\":1223:1224   */\n      dup1\n        /* \"#utility.yul\":1216:1228   */\n      revert\n        /* \"#utility.yul\":1178:1180   */\n    tag_124:\n        /* \"#utility.yul\":1269:1270   */\n      0x00\n        /* \"#utility.yul\":1294:1347   */\n      tag_125\n        /* \"#utility.yul\":1339:1346   */\n      dup5\n        /* \"#utility.yul\":1330:1336   */\n      dup3\n        /* \"#utility.yul\":1319:1328   */\n      dup6\n        /* \"#utility.yul\":1315:1337   */\n      add\n        /* \"#utility.yul\":1294:1347   */\n      tag_107\n      jump\t// in\n    tag_125:\n        /* \"#utility.yul\":1284:1347   */\n      swap2\n      pop\n        /* \"#utility.yul\":1240:1357   */\n      pop\n        /* \"#utility.yul\":1168:1364   */\n      swap3\n      swap2\n      pop\n      pop\n      jump\t// out\n        /* \"#utility.yul\":1370:2051   */\n    tag_44:\n        /* \"#utility.yul\":1465:1471   */\n      0x00\n        /* \"#utility.yul\":1473:1479   */\n      dup1\n        /* \"#utility.yul\":1481:1487   */\n      0x00\n        /* \"#utility.yul\":1530:1532   */\n      0x60\n        /* \"#utility.yul\":1518:1527   */\n      dup5\n        /* \"#utility.yul\":1509:1516   */\n      dup7\n        /* \"#utility.yul\":1505:1528   */\n      sub\n        /* \"#utility.yul\":1501:1533   */\n      slt\n        /* \"#utility.yul\":1498:1500   */\n      iszero\n      tag_127\n      jumpi\n        /* \"#utility.yul\":1546:1547   */\n      0x00\n        /* \"#utility.yul\":1543:1544   */\n      dup1\n        /* \"#utility.yul\":1536:1548   */\n      revert\n        /* \"#utility.yul\":1498:1500   */\n    tag_127:\n        /* \"#utility.yul\":1617:1618   */\n      0x00\n        /* \"#utility.yul\":1606:1615   */\n      dup5\n        /* \"#utility.yul\":1602:1619   */\n      add\n        /* \"#utility.yul\":1589:1620   */\n      calldataload\n        /* \"#utility.yul\":1647:1665   */\n      0xffffffffffffffff\n        /* \"#utility.yul\":1639:1645   */\n      dup2\n        /* \"#utility.yul\":1636:1666   */\n      gt\n        /* \"#utility.yul\":1633:1635   */\n      iszero\n      tag_128\n      jumpi\n        /* \"#utility.yul\":1679:1680   */\n      0x00\n        /* \"#utility.yul\":1676:1677   */\n      dup1\n        /* \"#utility.yul\":1669:1681   */\n      revert\n        /* \"#utility.yul\":1633:1635   */\n    tag_128:\n        /* \"#utility.yul\":1707:1770   */\n      tag_129\n        /* \"#utility.yul\":1762:1769   */\n      dup7\n        /* \"#utility.yul\":1753:1759   */\n      dup3\n        /* \"#utility.yul\":1742:1751   */\n      dup8\n        /* \"#utility.yul\":1738:1760   */\n      add\n        /* \"#utility.yul\":1707:1770   */\n      tag_115\n      jump\t// in\n    tag_129:\n        /* \"#utility.yul\":1697:1770   */\n      swap4\n      pop\n        /* \"#utility.yul\":1560:1780   */\n      pop\n        /* \"#utility.yul\":1819:1821   */\n      0x20\n        /* \"#utility.yul\":1845:1898   */\n      tag_130\n        /* \"#utility.yul\":1890:1897   */\n      dup7\n        /* \"#utility.yul\":1881:1887   */\n      dup3\n        /* \"#utility.yul\":1870:1879   */\n      dup8\n        /* \"#utility.yul\":1866:1888   */\n      add\n        /* \"#utility.yul\":1845:1898   */\n      tag_119\n      jump\t// in\n    tag_130:\n        /* \"#utility.yul\":1835:1898   */\n      swap3\n      pop\n        /* \"#utility.yul\":1790:1908   */\n      pop\n        /* \"#utility.yul\":1947:1949   */\n      0x40\n        /* \"#utility.yul\":1973:2034   */\n      tag_131\n        /* \"#utility.yul\":2026:2033   */\n      dup7\n        /* \"#utility.yul\":2017:2023   */\n      dup3\n        /* \"#utility.yul\":2006:2015   */\n      dup8\n        /* \"#utility.yul\":2002:2024   */\n      add\n        /* \"#utility.yul\":1973:2034   */\n      tag_111\n      jump\t// in\n    tag_131:\n        /* \"#utility.yul\":1963:2034   */\n      swap2\n      pop\n        /* \"#utility.yul\":1918:2044   */\n      pop\n        /* \"#utility.yul\":1488:2051   */\n      swap3\n      pop\n      swap3\n      pop\n      swap3\n      jump\t// out\n        /* \"#utility.yul\":2057:2319   */\n    tag_16:\n        /* \"#utility.yul\":2116:2122   */\n      0x00\n        /* \"#utility.yul\":2165:2167   */\n      0x20\n        /* \"#utility.yul\":2153:2162   */\n      dup3\n        /* \"#utility.yul\":2144:2151   */\n      dup5\n        /* \"#utility.yul\":2140:2163   */\n      sub\n        /* \"#utility.yul\":2136:2168   */\n      slt\n        /* \"#utility.yul\":2133:2135   */\n      iszero\n      tag_133\n      jumpi\n        /* \"#utility.yul\":2181:2182   */\n      0x00\n        /* \"#utility.yul\":2178:2179   */\n      dup1\n        /* \"#utility.yul\":2171:2183   */\n      revert\n        /* \"#utility.yul\":2133:2135   */\n    tag_133:\n        /* \"#utility.yul\":2224:2225   */\n      0x00\n        /* \"#utility.yul\":2249:2302   */\n      tag_134\n        /* \"#utility.yul\":2294:2301   */\n      dup5\n        /* \"#utility.yul\":2285:2291   */\n      dup3\n        /* \"#utility.yul\":2274:2283   */\n      dup6\n        /* \"#utility.yul\":2270:2292   */\n      add\n        /* \"#utility.yul\":2249:2302   */\n      tag_119\n      jump\t// in\n    tag_134:\n        /* \"#utility.yul\":2239:2302   */\n      swap2\n      pop\n        /* \"#utility.yul\":2195:2312   */\n      pop\n        /* \"#utility.yul\":2123:2319   */\n      swap3\n      swap2\n      pop\n      pop\n      jump\t// out\n        /* \"#utility.yul\":2325:2467   */\n    tag_135:\n        /* \"#utility.yul\":2428:2460   */\n      tag_137\n        /* \"#utility.yul\":2454:2459   */\n      dup2\n        /* \"#utility.yul\":2428:2460   */\n      tag_138\n      jump\t// in\n    tag_137:\n        /* \"#utility.yul\":2423:2426   */\n      dup3\n        /* \"#utility.yul\":2416:2461   */\n      mstore\n        /* \"#utility.yul\":2406:2467   */\n      pop\n      pop\n      jump\t// out\n        /* \"#utility.yul\":2473:2591   */\n    tag_139:\n        /* \"#utility.yul\":2560:2584   */\n      tag_141\n        /* \"#utility.yul\":2578:2583   */\n      dup2\n        /* \"#utility.yul\":2560:2584   */\n      tag_142\n      jump\t// in\n    tag_141:\n        /* \"#utility.yul\":2555:2558   */\n      dup3\n        /* \"#utility.yul\":2548:2585   */\n      mstore\n        /* \"#utility.yul\":2538:2591   */\n      pop\n      pop\n      jump\t// out\n        /* \"#utility.yul\":2597:2706   */\n    tag_143:\n        /* \"#utility.yul\":2678:2699   */\n      tag_145\n        /* \"#utility.yul\":2693:2698   */\n      dup2\n        /* \"#utility.yul\":2678:2699   */\n      tag_146\n      jump\t// in\n    tag_145:\n        /* \"#utility.yul\":2673:2676   */\n      dup3\n        /* \"#utility.yul\":2666:2700   */\n      mstore\n        /* \"#utility.yul\":2656:2706   */\n      pop\n      pop\n      jump\t// out\n        /* \"#utility.yul\":2712:3076   */\n    tag_147:\n        /* \"#utility.yul\":2800:2803   */\n      0x00\n        /* \"#utility.yul\":2828:2867   */\n      tag_149\n        /* \"#utility.yul\":2861:2866   */\n      dup3\n        /* \"#utility.yul\":2828:2867   */\n      tag_150\n      jump\t// in\n    tag_149:\n        /* \"#utility.yul\":2883:2954   */\n      tag_151\n        /* \"#utility.yul\":2947:2953   */\n      dup2\n        /* \"#utility.yul\":2942:2945   */\n      dup6\n        /* \"#utility.yul\":2883:2954   */\n      tag_152\n      jump\t// in\n    tag_151:\n        /* \"#utility.yul\":2876:2954   */\n      swap4\n      pop\n        /* \"#utility.yul\":2963:3015   */\n      tag_153\n        /* \"#utility.yul\":3008:3014   */\n      dup2\n        /* \"#utility.yul\":3003:3006   */\n      dup6\n        /* \"#utility.yul\":2996:3000   */\n      0x20\n        /* \"#utility.yul\":2989:2994   */\n      dup7\n        /* \"#utility.yul\":2985:3001   */\n      add\n        /* \"#utility.yul\":2963:3015   */\n      tag_154\n      jump\t// in\n    tag_153:\n        /* \"#utility.yul\":3040:3069   */\n      tag_155\n        /* \"#utility.yul\":3062:3068   */\n      dup2\n        /* \"#utility.yul\":3040:3069   */\n      tag_156\n      jump\t// in\n    tag_155:\n        /* \"#utility.yul\":3035:3038   */\n      dup5\n        /* \"#utility.yul\":3031:3070   */\n      add\n        /* \"#utility.yul\":3024:3070   */\n      swap2\n      pop\n        /* \"#utility.yul\":2804:3076   */\n      pop\n      swap3\n      swap2\n      pop\n      pop\n      jump\t// out\n        /* \"#utility.yul\":3082:3200   */\n    tag_157:\n        /* \"#utility.yul\":3169:3193   */\n      tag_159\n        /* \"#utility.yul\":3187:3192   */\n      dup2\n        /* \"#utility.yul\":3169:3193   */\n      tag_160\n      jump\t// in\n    tag_159:\n        /* \"#utility.yul\":3164:3167   */\n      dup3\n        /* \"#utility.yul\":3157:3194   */\n      mstore\n        /* \"#utility.yul\":3147:3200   */\n      pop\n      pop\n      jump\t// out\n        /* \"#utility.yul\":3206:3428   */\n    tag_29:\n        /* \"#utility.yul\":3299:3303   */\n      0x00\n        /* \"#utility.yul\":3337:3339   */\n      0x20\n        /* \"#utility.yul\":3326:3335   */\n      dup3\n        /* \"#utility.yul\":3322:3340   */\n      add\n        /* \"#utility.yul\":3314:3340   */\n      swap1\n      pop\n        /* \"#utility.yul\":3350:3421   */\n      tag_162\n        /* \"#utility.yul\":3418:3419   */\n      0x00\n        /* \"#utility.yul\":3407:3416   */\n      dup4\n        /* \"#utility.yul\":3403:3420   */\n      add\n        /* \"#utility.yul\":3394:3400   */\n      dup5\n        /* \"#utility.yul\":3350:3421   */\n      tag_139\n      jump\t// in\n    tag_162:\n        /* \"#utility.yul\":3304:3428   */\n      swap3\n      swap2\n      pop\n      pop\n      jump\t// out\n        /* \"#utility.yul\":3434:3644   */\n    tag_24:\n        /* \"#utility.yul\":3521:3525   */\n      0x00\n        /* \"#utility.yul\":3559:3561   */\n      0x20\n        /* \"#utility.yul\":3548:3557   */\n      dup3\n        /* \"#utility.yul\":3544:3562   */\n      add\n        /* \"#utility.yul\":3536:3562   */\n      swap1\n      pop\n        /* \"#utility.yul\":3572:3637   */\n      tag_164\n        /* \"#utility.yul\":3634:3635   */\n      0x00\n        /* \"#utility.yul\":3623:3632   */\n      dup4\n        /* \"#utility.yul\":3619:3636   */\n      add\n        /* \"#utility.yul\":3610:3616   */\n      dup5\n        /* \"#utility.yul\":3572:3637   */\n      tag_143\n      jump\t// in\n    tag_164:\n        /* \"#utility.yul\":3526:3644   */\n      swap3\n      swap2\n      pop\n      pop\n      jump\t// out\n        /* \"#utility.yul\":3650:4425   */\n    tag_35:\n        /* \"#utility.yul\":3885:3889   */\n      0x00\n        /* \"#utility.yul\":3923:3926   */\n      0xa0\n        /* \"#utility.yul\":3912:3921   */\n      dup3\n        /* \"#utility.yul\":3908:3927   */\n      add\n        /* \"#utility.yul\":3900:3927   */\n      swap1\n      pop\n        /* \"#utility.yul\":3973:3982   */\n      dup2\n        /* \"#utility.yul\":3967:3971   */\n      dup2\n        /* \"#utility.yul\":3963:3983   */\n      sub\n        /* \"#utility.yul\":3959:3960   */\n      0x00\n        /* \"#utility.yul\":3948:3957   */\n      dup4\n        /* \"#utility.yul\":3944:3961   */\n      add\n        /* \"#utility.yul\":3937:3984   */\n      mstore\n        /* \"#utility.yul\":4001:4079   */\n      tag_166\n        /* \"#utility.yul\":4074:4078   */\n      dup2\n        /* \"#utility.yul\":4065:4071   */\n      dup9\n        /* \"#utility.yul\":4001:4079   */\n      tag_147\n      jump\t// in\n    tag_166:\n        /* \"#utility.yul\":3993:4079   */\n      swap1\n      pop\n        /* \"#utility.yul\":4089:4161   */\n      tag_167\n        /* \"#utility.yul\":4157:4159   */\n      0x20\n        /* \"#utility.yul\":4146:4155   */\n      dup4\n        /* \"#utility.yul\":4142:4160   */\n      add\n        /* \"#utility.yul\":4133:4139   */\n      dup8\n        /* \"#utility.yul\":4089:4161   */\n      tag_157\n      jump\t// in\n    tag_167:\n        /* \"#utility.yul\":4171:4259   */\n      tag_168\n        /* \"#utility.yul\":4255:4257   */\n      0x40\n        /* \"#utility.yul\":4244:4253   */\n      dup4\n        /* \"#utility.yul\":4240:4258   */\n      add\n        /* \"#utility.yul\":4231:4237   */\n      dup7\n        /* \"#utility.yul\":4171:4259   */\n      tag_135\n      jump\t// in\n    tag_168:\n        /* \"#utility.yul\":4269:4335   */\n      tag_169\n        /* \"#utility.yul\":4331:4333   */\n      0x60\n        /* \"#utility.yul\":4320:4329   */\n      dup4\n        /* \"#utility.yul\":4316:4334   */\n      add\n        /* \"#utility.yul\":4307:4313   */\n      dup6\n        /* \"#utility.yul\":4269:4335   */\n      tag_143\n      jump\t// in\n    tag_169:\n        /* \"#utility.yul\":4345:4418   */\n      tag_170\n        /* \"#utility.yul\":4413:4416   */\n      0x80\n        /* \"#utility.yul\":4402:4411   */\n      dup4\n        /* \"#utility.yul\":4398:4417   */\n      add\n        /* \"#utility.yul\":4389:4395   */\n      dup5\n        /* \"#utility.yul\":4345:4418   */\n      tag_157\n      jump\t// in\n    tag_170:\n        /* \"#utility.yul\":3890:4425   */\n      swap7\n      swap6\n      pop\n      pop\n      pop\n      pop\n      pop\n      pop\n      jump\t// out\n        /* \"#utility.yul\":4431:4653   */\n    tag_40:\n        /* \"#utility.yul\":4524:4528   */\n      0x00\n        /* \"#utility.yul\":4562:4564   */\n      0x20\n        /* \"#utility.yul\":4551:4560   */\n      dup3\n        /* \"#utility.yul\":4547:4565   */\n      add\n        /* \"#utility.yul\":4539:4565   */\n      swap1\n      pop\n        /* \"#utility.yul\":4575:4646   */\n      tag_172\n        /* \"#utility.yul\":4643:4644   */\n      0x00\n        /* \"#utility.yul\":4632:4641   */\n      dup4\n        /* \"#utility.yul\":4628:4645   */\n      add\n        /* \"#utility.yul\":4619:4625   */\n      dup5\n        /* \"#utility.yul\":4575:4646   */\n      tag_157\n      jump\t// in\n    tag_172:\n        /* \"#utility.yul\":4529:4653   */\n      swap3\n      swap2\n      pop\n      pop\n      jump\t// out\n        /* \"#utility.yul\":4659:4788   */\n    tag_103:\n        /* \"#utility.yul\":4693:4699   */\n      0x00\n        /* \"#utility.yul\":4720:4740   */\n      tag_174\n      tag_175\n      jump\t// in\n    tag_174:\n        /* \"#utility.yul\":4710:4740   */\n      swap1\n      pop\n        /* \"#utility.yul\":4749:4782   */\n      tag_176\n        /* \"#utility.yul\":4777:4781   */\n      dup3\n        /* \"#utility.yul\":4769:4775   */\n      dup3\n        /* \"#utility.yul\":4749:4782   */\n      tag_177\n      jump\t// in\n    tag_176:\n        /* \"#utility.yul\":4700:4788   */\n      swap2\n      swap1\n      pop\n      jump\t// out\n        /* \"#utility.yul\":4794:4869   */\n    tag_175:\n        /* \"#utility.yul\":4827:4833   */\n      0x00\n        /* \"#utility.yul\":4860:4862   */\n      0x40\n        /* \"#utility.yul\":4854:4863   */\n      mload\n        /* \"#utility.yul\":4844:4863   */\n      swap1\n      pop\n        /* \"#utility.yul\":4834:4869   */\n      swap1\n      jump\t// out\n        /* \"#utility.yul\":4875:5183   */\n    tag_102:\n        /* \"#utility.yul\":4937:4941   */\n      0x00\n        /* \"#utility.yul\":5027:5045   */\n      0xffffffffffffffff\n        /* \"#utility.yul\":5019:5025   */\n      dup3\n        /* \"#utility.yul\":5016:5046   */\n      gt\n        /* \"#utility.yul\":5013:5015   */\n      iszero\n      tag_180\n      jumpi\n        /* \"#utility.yul\":5049:5067   */\n      tag_181\n      tag_182\n      jump\t// in\n    tag_181:\n        /* \"#utility.yul\":5013:5015   */\n    tag_180:\n        /* \"#utility.yul\":5087:5116   */\n      tag_183\n        /* \"#utility.yul\":5109:5115   */\n      dup3\n        /* \"#utility.yul\":5087:5116   */\n      tag_156\n      jump\t// in\n    tag_183:\n        /* \"#utility.yul\":5079:5116   */\n      swap1\n      pop\n        /* \"#utility.yul\":5171:5175   */\n      0x20\n        /* \"#utility.yul\":5165:5169   */\n      dup2\n        /* \"#utility.yul\":5161:5176   */\n      add\n        /* \"#utility.yul\":5153:5176   */\n      swap1\n      pop\n        /* \"#utility.yul\":4942:5183   */\n      swap2\n      swap1\n      pop\n      jump\t// out\n        /* \"#utility.yul\":5189:5288   */\n    tag_150:\n        /* \"#utility.yul\":5241:5247   */\n      0x00\n        /* \"#utility.yul\":5275:5280   */\n      dup2\n        /* \"#utility.yul\":5269:5281   */\n      mload\n        /* \"#utility.yul\":5259:5281   */\n      swap1\n      pop\n        /* \"#utility.yul\":5248:5288   */\n      swap2\n      swap1\n      pop\n      jump\t// out\n        /* \"#utility.yul\":5294:5463   */\n    tag_152:\n        /* \"#utility.yul\":5378:5389   */\n      0x00\n        /* \"#utility.yul\":5412:5418   */\n      dup3\n        /* \"#utility.yul\":5407:5410   */\n      dup3\n        /* \"#utility.yul\":5400:5419   */\n      mstore\n        /* \"#utility.yul\":5452:5456   */\n      0x20\n        /* \"#utility.yul\":5447:5450   */\n      dup3\n        /* \"#utility.yul\":5443:5457   */\n      add\n        /* \"#utility.yul\":5428:5457   */\n      swap1\n      pop\n        /* \"#utility.yul\":5390:5463   */\n      swap3\n      swap2\n      pop\n      pop\n      jump\t// out\n        /* \"#utility.yul\":5469:5654   */\n    tag_64:\n        /* \"#utility.yul\":5509:5510   */\n      0x00\n        /* \"#utility.yul\":5526:5546   */\n      tag_187\n        /* \"#utility.yul\":5544:5545   */\n      dup3\n        /* \"#utility.yul\":5526:5546   */\n      tag_160\n      jump\t// in\n    tag_187:\n        /* \"#utility.yul\":5521:5546   */\n      swap2\n      pop\n        /* \"#utility.yul\":5560:5580   */\n      tag_188\n        /* \"#utility.yul\":5578:5579   */\n      dup4\n        /* \"#utility.yul\":5560:5580   */\n      tag_160\n      jump\t// in\n    tag_188:\n        /* \"#utility.yul\":5555:5580   */\n      swap3\n      pop\n        /* \"#utility.yul\":5599:5600   */\n      dup3\n        /* \"#utility.yul\":5589:5591   */\n      tag_189\n      jumpi\n        /* \"#utility.yul\":5604:5622   */\n      tag_190\n      tag_191\n      jump\t// in\n    tag_190:\n        /* \"#utility.yul\":5589:5591   */\n    tag_189:\n        /* \"#utility.yul\":5646:5647   */\n      dup3\n        /* \"#utility.yul\":5643:5644   */\n      dup3\n        /* \"#utility.yul\":5639:5648   */\n      div\n        /* \"#utility.yul\":5634:5648   */\n      swap1\n      pop\n        /* \"#utility.yul\":5511:5654   */\n      swap3\n      swap2\n      pop\n      pop\n      jump\t// out\n        /* \"#utility.yul\":5660:5756   */\n    tag_142:\n        /* \"#utility.yul\":5697:5704   */\n      0x00\n        /* \"#utility.yul\":5726:5750   */\n      tag_193\n        /* \"#utility.yul\":5744:5749   */\n      dup3\n        /* \"#utility.yul\":5726:5750   */\n      tag_194\n      jump\t// in\n    tag_193:\n        /* \"#utility.yul\":5715:5750   */\n      swap1\n      pop\n        /* \"#utility.yul\":5705:5756   */\n      swap2\n      swap1\n      pop\n      jump\t// out\n        /* \"#utility.yul\":5762:5866   */\n    tag_138:\n        /* \"#utility.yul\":5807:5814   */\n      0x00\n        /* \"#utility.yul\":5836:5860   */\n      tag_196\n        /* \"#utility.yul\":5854:5859   */\n      dup3\n        /* \"#utility.yul\":5836:5860   */\n      tag_194\n      jump\t// in\n    tag_196:\n        /* \"#utility.yul\":5825:5860   */\n      swap1\n      pop\n        /* \"#utility.yul\":5815:5866   */\n      swap2\n      swap1\n      pop\n      jump\t// out\n        /* \"#utility.yul\":5872:5962   */\n    tag_146:\n        /* \"#utility.yul\":5906:5913   */\n      0x00\n        /* \"#utility.yul\":5949:5954   */\n      dup2\n        /* \"#utility.yul\":5942:5955   */\n      iszero\n        /* \"#utility.yul\":5935:5956   */\n      iszero\n        /* \"#utility.yul\":5924:5956   */\n      swap1\n      pop\n        /* \"#utility.yul\":5914:5962   */\n      swap2\n      swap1\n      pop\n      jump\t// out\n        /* \"#utility.yul\":5968:6094   */\n    tag_194:\n        /* \"#utility.yul\":6005:6012   */\n      0x00\n        /* \"#utility.yul\":6045:6087   */\n      0xffffffffffffffffffffffffffffffffffffffff\n        /* \"#utility.yul\":6038:6043   */\n      dup3\n        /* \"#utility.yul\":6034:6088   */\n      and\n        /* \"#utility.yul\":6023:6088   */\n      swap1\n      pop\n        /* \"#utility.yul\":6013:6094   */\n      swap2\n      swap1\n      pop\n      jump\t// out\n        /* \"#utility.yul\":6100:6177   */\n    tag_160:\n        /* \"#utility.yul\":6137:6144   */\n      0x00\n        /* \"#utility.yul\":6166:6171   */\n      dup2\n        /* \"#utility.yul\":6155:6171   */\n      swap1\n      pop\n        /* \"#utility.yul\":6145:6177   */\n      swap2\n      swap1\n      pop\n      jump\t// out\n        /* \"#utility.yul\":6183:6337   */\n    tag_106:\n        /* \"#utility.yul\":6267:6273   */\n      dup3\n        /* \"#utility.yul\":6262:6265   */\n      dup2\n        /* \"#utility.yul\":6257:6260   */\n      dup4\n        /* \"#utility.yul\":6244:6274   */\n      calldatacopy\n        /* \"#utility.yul\":6329:6330   */\n      0x00\n        /* \"#utility.yul\":6320:6326   */\n      dup4\n        /* \"#utility.yul\":6315:6318   */\n      dup4\n        /* \"#utility.yul\":6311:6327   */\n      add\n        /* \"#utility.yul\":6304:6331   */\n      mstore\n        /* \"#utility.yul\":6234:6337   */\n      pop\n      pop\n      pop\n      jump\t// out\n        /* \"#utility.yul\":6343:6650   */\n    tag_154:\n        /* \"#utility.yul\":6411:6412   */\n      0x00\n        /* \"#utility.yul\":6421:6534   */\n    tag_202:\n        /* \"#utility.yul\":6435:6441   */\n      dup4\n        /* \"#utility.yul\":6432:6433   */\n      dup2\n        /* \"#utility.yul\":6429:6442   */\n      lt\n        /* \"#utility.yul\":6421:6534   */\n      iszero\n      tag_204\n      jumpi\n        /* \"#utility.yul\":6520:6521   */\n      dup1\n        /* \"#utility.yul\":6515:6518   */\n      dup3\n        /* \"#utility.yul\":6511:6522   */\n      add\n        /* \"#utility.yul\":6505:6523   */\n      mload\n        /* \"#utility.yul\":6501:6502   */\n      dup2\n        /* \"#utility.yul\":6496:6499   */\n      dup5\n        /* \"#utility.yul\":6492:6503   */\n      add\n        /* \"#utility.yul\":6485:6524   */\n      mstore\n        /* \"#utility.yul\":6457:6459   */\n      0x20\n        /* \"#utility.yul\":6454:6455   */\n      dup2\n        /* \"#utility.yul\":6450:6460   */\n      add\n        /* \"#utility.yul\":6445:6460   */\n      swap1\n      pop\n        /* \"#utility.yul\":6421:6534   */\n      jump(tag_202)\n    tag_204:\n        /* \"#utility.yul\":6552:6558   */\n      dup4\n        /* \"#utility.yul\":6549:6550   */\n      dup2\n        /* \"#utility.yul\":6546:6559   */\n      gt\n        /* \"#utility.yul\":6543:6545   */\n      iszero\n      tag_205\n      jumpi\n        /* \"#utility.yul\":6632:6633   */\n      0x00\n        /* \"#utility.yul\":6623:6629   */\n      dup5\n        /* \"#utility.yul\":6618:6621   */\n      dup5\n        /* \"#utility.yul\":6614:6630   */\n      add\n        /* \"#utility.yul\":6607:6634   */\n      mstore\n        /* \"#utility.yul\":6543:6545   */\n    tag_205:\n        /* \"#utility.yul\":6392:6650   */\n      pop\n      pop\n      pop\n      pop\n      jump\t// out\n        /* \"#utility.yul\":6656:6976   */\n    tag_70:\n        /* \"#utility.yul\":6700:6706   */\n      0x00\n        /* \"#utility.yul\":6737:6738   */\n      0x02\n        /* \"#utility.yul\":6731:6735   */\n      dup3\n        /* \"#utility.yul\":6727:6739   */\n      div\n        /* \"#utility.yul\":6717:6739   */\n      swap1\n      pop\n        /* \"#utility.yul\":6784:6785   */\n      0x01\n        /* \"#utility.yul\":6778:6782   */\n      dup3\n        /* \"#utility.yul\":6774:6786   */\n      and\n        /* \"#utility.yul\":6805:6823   */\n      dup1\n        /* \"#utility.yul\":6795:6797   */\n      tag_207\n      jumpi\n        /* \"#utility.yul\":6861:6865   */\n      0x7f\n        /* \"#utility.yul\":6853:6859   */\n      dup3\n        /* \"#utility.yul\":6849:6866   */\n      and\n        /* \"#utility.yul\":6839:6866   */\n      swap2\n      pop\n        /* \"#utility.yul\":6795:6797   */\n    tag_207:\n        /* \"#utility.yul\":6923:6925   */\n      0x20\n        /* \"#utility.yul\":6915:6921   */\n      dup3\n        /* \"#utility.yul\":6912:6926   */\n      lt\n        /* \"#utility.yul\":6892:6910   */\n      dup2\n        /* \"#utility.yul\":6889:6927   */\n      eq\n        /* \"#utility.yul\":6886:6888   */\n      iszero\n      tag_208\n      jumpi\n        /* \"#utility.yul\":6942:6960   */\n      tag_209\n      tag_210\n      jump\t// in\n    tag_209:\n        /* \"#utility.yul\":6886:6888   */\n    tag_208:\n        /* \"#utility.yul\":6707:6976   */\n      pop\n      swap2\n      swap1\n      pop\n      jump\t// out\n        /* \"#utility.yul\":6982:7263   */\n    tag_177:\n        /* \"#utility.yul\":7065:7092   */\n      tag_212\n        /* \"#utility.yul\":7087:7091   */\n      dup3\n        /* \"#utility.yul\":7065:7092   */\n      tag_156\n      jump\t// in\n    tag_212:\n        /* \"#utility.yul\":7057:7063   */\n      dup2\n        /* \"#utility.yul\":7053:7093   */\n      add\n        /* \"#utility.yul\":7195:7201   */\n      dup2\n        /* \"#utility.yul\":7183:7193   */\n      dup2\n        /* \"#utility.yul\":7180:7202   */\n      lt\n        /* \"#utility.yul\":7159:7177   */\n      0xffffffffffffffff\n        /* \"#utility.yul\":7147:7157   */\n      dup3\n        /* \"#utility.yul\":7144:7178   */\n      gt\n        /* \"#utility.yul\":7141:7203   */\n      or\n        /* \"#utility.yul\":7138:7140   */\n      iszero\n      tag_213\n      jumpi\n        /* \"#utility.yul\":7206:7224   */\n      tag_214\n      tag_182\n      jump\t// in\n    tag_214:\n        /* \"#utility.yul\":7138:7140   */\n    tag_213:\n        /* \"#utility.yul\":7246:7256   */\n      dup1\n        /* \"#utility.yul\":7242:7244   */\n      0x40\n        /* \"#utility.yul\":7235:7257   */\n      mstore\n        /* \"#utility.yul\":7025:7263   */\n      pop\n      pop\n      pop\n      jump\t// out\n        /* \"#utility.yul\":7269:7502   */\n    tag_79:\n        /* \"#utility.yul\":7308:7311   */\n      0x00\n        /* \"#utility.yul\":7331:7355   */\n      tag_216\n        /* \"#utility.yul\":7349:7354   */\n      dup3\n        /* \"#utility.yul\":7331:7355   */\n      tag_160\n      jump\t// in\n    tag_216:\n        /* \"#utility.yul\":7322:7355   */\n      swap2\n      pop\n        /* \"#utility.yul\":7377:7443   */\n      0xffffffffffffffffffffffffffffffffffffffffffffffffffffffffffffffff\n        /* \"#utility.yul\":7370:7375   */\n      dup3\n        /* \"#utility.yul\":7367:7444   */\n      eq\n        /* \"#utility.yul\":7364:7366   */\n      iszero\n      tag_217\n      jumpi\n        /* \"#utility.yul\":7447:7465   */\n      tag_218\n      tag_219\n      jump\t// in\n    tag_218:\n        /* \"#utility.yul\":7364:7366   */\n    tag_217:\n        /* \"#utility.yul\":7494:7495   */\n      0x01\n        /* \"#utility.yul\":7487:7492   */\n      dup3\n        /* \"#utility.yul\":7483:7496   */\n      add\n        /* \"#utility.yul\":7476:7496   */\n      swap1\n      pop\n        /* \"#utility.yul\":7312:7502   */\n      swap2\n      swap1\n      pop\n      jump\t// out\n        /* \"#utility.yul\":7508:7688   */\n    tag_219:\n        /* \"#utility.yul\":7556:7633   */\n      0x4e487b7100000000000000000000000000000000000000000000000000000000\n        /* \"#utility.yul\":7553:7554   */\n      0x00\n        /* \"#utility.yul\":7546:7634   */\n      mstore\n        /* \"#utility.yul\":7653:7657   */\n      0x11\n        /* \"#utility.yul\":7650:7651   */\n      0x04\n        /* \"#utility.yul\":7643:7658   */\n      mstore\n        /* \"#utility.yul\":7677:7681   */\n      0x24\n        /* \"#utility.yul\":7674:7675   */\n      0x00\n        /* \"#utility.yul\":7667:7682   */\n      revert\n        /* \"#utility.yul\":7694:7874   */\n    tag_191:\n        /* \"#utility.yul\":7742:7819   */\n      0x4e487b7100000000000000000000000000000000000000000000000000000000\n        /* \"#utility.yul\":7739:7740   */\n      0x00\n        /* \"#utility.yul\":7732:7820   */\n      mstore\n        /* \"#utility.yul\":7839:7843   */\n      0x12\n        /* \"#utility.yul\":7836:7837   */\n      0x04\n        /* \"#utility.yul\":7829:7844   */\n      mstore\n        /* \"#utility.yul\":7863:7867   */\n      0x24\n        /* \"#utility.yul\":7860:7861   */\n      0x00\n        /* \"#utility.yul\":7853:7868   */\n      revert\n        /* \"#utility.yul\":7880:8060   */\n    tag_210:\n        /* \"#utility.yul\":7928:8005   */\n      0x4e487b7100000000000000000000000000000000000000000000000000000000\n        /* \"#utility.yul\":7925:7926   */\n      0x00\n        /* \"#utility.yul\":7918:8006   */\n      mstore\n        /* \"#utility.yul\":8025:8029   */\n      0x22\n        /* \"#utility.yul\":8022:8023   */\n      0x04\n        /* \"#utility.yul\":8015:8030   */\n      mstore\n        /* \"#utility.yul\":8049:8053   */\n      0x24\n        /* \"#utility.yul\":8046:8047   */\n      0x00\n        /* \"#utility.yul\":8039:8054   */\n      revert\n        /* \"#utility.yul\":8066:8246   */\n    tag_182:\n        /* \"#utility.yul\":8114:8191   */\n      0x4e487b7100000000000000000000000000000000000000000000000000000000\n        /* \"#utility.yul\":8111:8112   */\n      0x00\n        /* \"#utility.yul\":8104:8192   */\n      mstore\n        /* \"#utility.yul\":8211:8215   */\n      0x41\n        /* \"#utility.yul\":8208:8209   */\n      0x04\n        /* \"#utility.yul\":8201:8216   */\n      mstore\n        /* \"#utility.yul\":8235:8239   */\n      0x24\n        /* \"#utility.yul\":8232:8233   */\n      0x00\n        /* \"#utility.yul\":8225:8240   */\n      revert\n        /* \"#utility.yul\":8252:8354   */\n    tag_156:\n        /* \"#utility.yul\":8293:8299   */\n      0x00\n        /* \"#utility.yul\":8344:8346   */\n      0x1f\n        /* \"#utility.yul\":8340:8347   */\n      not\n        /* \"#utility.yul\":8335:8337   */\n      0x1f\n        /* \"#utility.yul\":8328:8333   */\n      dup4\n        /* \"#utility.yul\":8324:8338   */\n      add\n        /* \"#utility.yul\":8320:8348   */\n      and\n        /* \"#utility.yul\":8310:8348   */\n      swap1\n      pop\n        /* \"#utility.yul\":8300:8354   */\n      swap2\n      swap1\n      pop\n      jump\t// out\n        /* \"#utility.yul\":8360:8482   */\n    tag_110:\n        /* \"#utility.yul\":8433:8457   */\n      tag_226\n        /* \"#utility.yul\":8451:8456   */\n      dup2\n        /* \"#utility.yul\":8433:8457   */\n      tag_142\n      jump\t// in\n    tag_226:\n        /* \"#utility.yul\":8426:8431   */\n      dup2\n        /* \"#utility.yul\":8423:8458   */\n      eq\n        /* \"#utility.yul\":8413:8415   */\n      tag_227\n      jumpi\n        /* \"#utility.yul\":8472:8473   */\n      0x00\n        /* \"#utility.yul\":8469:8470   */\n      dup1\n        /* \"#utility.yul\":8462:8474   */\n      revert\n        /* \"#utility.yul\":8413:8415   */\n    tag_227:\n        /* \"#utility.yul\":8403:8482   */\n      pop\n      jump\t// out\n        /* \"#utility.yul\":8488:8626   */\n    tag_114:\n        /* \"#utility.yul\":8569:8601   */\n      tag_229\n        /* \"#utility.yul\":8595:8600   */\n      dup2\n        /* \"#utility.yul\":8569:8601   */\n      tag_138\n      jump\t// in\n    tag_229:\n        /* \"#utility.yul\":8562:8567   */\n      dup2\n        /* \"#utility.yul\":8559:8602   */\n      eq\n        /* \"#utility.yul\":8549:8551   */\n      tag_230\n      jumpi\n        /* \"#utility.yul\":8616:8617   */\n      0x00\n        /* \"#utility.yul\":8613:8614   */\n      dup1\n        /* \"#utility.yul\":8606:8618   */\n      revert\n        /* \"#utility.yul\":8549:8551   */\n    tag_230:\n        /* \"#utility.yul\":8539:8626   */\n      pop\n      jump\t// out\n        /* \"#utility.yul\":8632:8754   */\n    tag_122:\n        /* \"#utility.yul\":8705:8729   */\n      tag_232\n        /* \"#utility.yul\":8723:8728   */\n      dup2\n        /* \"#utility.yul\":8705:8729   */\n      tag_160\n      jump\t// in\n    tag_232:\n        /* \"#utility.yul\":8698:8703   */\n      dup2\n        /* \"#utility.yul\":8695:8730   */\n      eq\n        /* \"#utility.yul\":8685:8687   */\n      tag_233\n      jumpi\n        /* \"#utility.yul\":8744:8745   */\n      0x00\n        /* \"#utility.yul\":8741:8742   */\n      dup1\n        /* \"#utility.yul\":8734:8746   */\n      revert\n        /* \"#utility.yul\":8685:8687   */\n    tag_233:\n        /* \"#utility.yul\":8675:8754   */\n      pop\n      jump\t// out\n\n    auxdata: 0xa2646970667358221220f3ed5f347497de848cb0a940ba27cbd0a55dc8eb100b853bf364cbbdbb2d729964736f6c63430008040033\n}\n",
    "bytecode": {
      "linkReferences": {},
      "object": "60806040523480156200001157600080fd5b5060405162000eb838038062000eb88339818101604052810190620000379190620000b5565b80600260006101000a81548173ffffffffffffffffffffffffffffffffffffffff021916908373ffffffffffffffffffffffffffffffffffffffff16021790555081600381905550505062000168565b600081519050620000988162000134565b92915050565b600081519050620000af816200014e565b92915050565b60008060408385031215620000c957600080fd5b6000620000d9858286016200009e565b9250506020620000ec8582860162000087565b9150509250929050565b600062000103826200010a565b9050919050565b600073ffffffffffffffffffffffffffffffffffffffff82169050919050565b6000819050919050565b6200013f81620000f6565b81146200014b57600080fd5b50565b62000159816200012a565b81146200016557600080fd5b50565b610d4080620001786000396000f3fe6080604052600436106100915760003560e01c80638a9cfd55116100595780638a9cfd5514610193578063937e09b1146101bc5780639fb42b1f146101e7578063d7bb99ba14610212578063d7d1bbdb1461021c57610091565b806303441006146100965780630a144391146100bf578063481c6a75146100fc57806381d12c581461012757806382fde09314610168575b600080fd5b3480156100a257600080fd5b506100bd60048036038101906100b891906108c4565b610245565b005b3480156100cb57600080fd5b506100e660048036038101906100e19190610834565b610380565b6040516100f3919061097d565b60405180910390f35b34801561010857600080fd5b506101116103a0565b60405161011e9190610962565b60405180910390f35b34801561013357600080fd5b5061014e600480360381019061014991906108c4565b6103c6565b60405161015f959493929190610998565b60405180910390f35b34801561017457600080fd5b5061017d6104b1565b60405161018a91906109f2565b60405180910390f35b34801561019f57600080fd5b506101ba60048036038101906101b5919061085d565b6104b7565b005b3480156101c857600080fd5b506101d16105cf565b6040516101de91906109f2565b60405180910390f35b3480156101f357600080fd5b506101fc6105d5565b60405161020991906109f2565b60405180910390f35b61021a6105db565b005b34801561022857600080fd5b50610243600480360381019061023e91906108c4565b61065b565b005b600260009054906101000a900473ffffffffffffffffffffffffffffffffffffffff1673ffffffffffffffffffffffffffffffffffffffff163373ffffffffffffffffffffffffffffffffffffffff161461029f57600080fd5b600060016000838152602001908152602001600020905060026005546102c59190610a7f565b8160030154116102d457600080fd5b8060020160149054906101000a900460ff16156102f057600080fd5b8060020160009054906101000a900473ffffffffffffffffffffffffffffffffffffffff1673ffffffffffffffffffffffffffffffffffffffff166108fc82600101549081150290604051600060405180830381858888f1935050505015801561035e573d6000803e3d6000fd5b5060018160020160146101000a81548160ff0219169083151502179055505050565b60046020528060005260406000206000915054906101000a900460ff1681565b600260009054906101000a900473ffffffffffffffffffffffffffffffffffffffff1681565b60016020528060005260406000206000915090508060000180546103e990610b4c565b80601f016020809104026020016040519081016040528092919081815260200182805461041590610b4c565b80156104625780601f1061043757610100808354040283529160200191610462565b820191906000526020600020905b81548152906001019060200180831161044557829003601f168201915b5050505050908060010154908060020160009054906101000a900473ffffffffffffffffffffffffffffffffffffffff16908060020160149054906101000a900460ff16908060030154905085565b60055481565b600260009054906101000a900473ffffffffffffffffffffffffffffffffffffffff1673ffffffffffffffffffffffffffffffffffffffff163373ffffffffffffffffffffffffffffffffffffffff161461051157600080fd5b60006001600080600081548092919061052990610baf565b9190505581526020019081526020016000209050838160000190805190602001906105559291906106ea565b50828160010181905550818160020160006101000a81548173ffffffffffffffffffffffffffffffffffffffff021916908373ffffffffffffffffffffffffffffffffffffffff16021790555060008160020160146101000a81548160ff0219169083151502179055506000816003018190555050505050565b60035481565b60005481565b60035434116105e957600080fd5b6001600460003373ffffffffffffffffffffffffffffffffffffffff1673ffffffffffffffffffffffffffffffffffffffff16815260200190815260200160002060006101000a81548160ff0219169083151502179055506005600081548092919061065490610baf565b9190505550565b600060016000838152602001908152602001600020905060018160040160003373ffffffffffffffffffffffffffffffffffffffff1673ffffffffffffffffffffffffffffffffffffffff16815260200190815260200160002060006101000a81548160ff0219169083151502179055508060030160008154809291906106e190610baf565b91905055505050565b8280546106f690610b4c565b90600052602060002090601f016020900481019282610718576000855561075f565b82601f1061073157805160ff191683800117855561075f565b8280016001018555821561075f579182015b8281111561075e578251825591602001919060010190610743565b5b50905061076c9190610770565b5090565b5b80821115610789576000816000905550600101610771565b5090565b60006107a061079b84610a32565b610a0d565b9050828152602081018484840111156107b857600080fd5b6107c3848285610b0a565b509392505050565b6000813590506107da81610cc5565b92915050565b6000813590506107ef81610cdc565b92915050565b600082601f83011261080657600080fd5b813561081684826020860161078d565b91505092915050565b60008135905061082e81610cf3565b92915050565b60006020828403121561084657600080fd5b6000610854848285016107cb565b91505092915050565b60008060006060848603121561087257600080fd5b600084013567ffffffffffffffff81111561088c57600080fd5b610898868287016107f5565b93505060206108a98682870161081f565b92505060406108ba868287016107e0565b9150509250925092565b6000602082840312156108d657600080fd5b60006108e48482850161081f565b91505092915050565b6108f681610ac2565b82525050565b61090581610ab0565b82525050565b61091481610ad4565b82525050565b600061092582610a63565b61092f8185610a6e565b935061093f818560208601610b19565b61094881610cb4565b840191505092915050565b61095c81610b00565b82525050565b600060208201905061097760008301846108fc565b92915050565b6000602082019050610992600083018461090b565b92915050565b600060a08201905081810360008301526109b2818861091a565b90506109c16020830187610953565b6109ce60408301866108ed565b6109db606083018561090b565b6109e86080830184610953565b9695505050505050565b6000602082019050610a076000830184610953565b92915050565b6000610a17610a28565b9050610a238282610b7e565b919050565b6000604051905090565b600067ffffffffffffffff821115610a4d57610a4c610c85565b5b610a5682610cb4565b9050602081019050919050565b600081519050919050565b600082825260208201905092915050565b6000610a8a82610b00565b9150610a9583610b00565b925082610aa557610aa4610c27565b5b828204905092915050565b6000610abb82610ae0565b9050919050565b6000610acd82610ae0565b9050919050565b60008115159050919050565b600073ffffffffffffffffffffffffffffffffffffffff82169050919050565b6000819050919050565b82818337600083830152505050565b60005b83811015610b37578082015181840152602081019050610b1c565b83811115610b46576000848401525b50505050565b60006002820490506001821680610b6457607f821691505b60208210811415610b7857610b77610c56565b5b50919050565b610b8782610cb4565b810181811067ffffffffffffffff82111715610ba657610ba5610c85565b5b80604052505050565b6000610bba82610b00565b91507fffffffffffffffffffffffffffffffffffffffffffffffffffffffffffffffff821415610bed57610bec610bf8565b5b600182019050919050565b7f4e487b7100000000000000000000000000000000000000000000000000000000600052601160045260246000fd5b7f4e487b7100000000000000000000000000000000000000000000000000000000600052601260045260246000fd5b7f4e487b7100000000000000000000000000000000000000000000000000000000600052602260045260246000fd5b7f4e487b7100000000000000000000000000000000000000000000000000000000600052604160045260246000fd5b6000601f19601f8301169050919050565b610cce81610ab0565b8114610cd957600080fd5b50565b610ce581610ac2565b8114610cf057600080fd5b50565b610cfc81610b00565b8114610d0757600080fd5b5056fea2646970667358221220f3ed5f347497de848cb0a940ba27cbd0a55dc8eb100b853bf364cbbdbb2d729964736f6c63430008040033",
      "opcodes": "PUSH1 0x80 PUSH1 0x40 MSTORE CALLVALUE DUP1 ISZERO PUSH3 0x11 JUMPI PUSH1 0x0 DUP1 REVERT JUMPDEST POP PUSH1 0x40 MLOAD PUSH3 0xEB8 CODESIZE SUB DUP1 PUSH3 0xEB8 DUP4 CODECOPY DUP2 DUP2 ADD PUSH1 0x40 MSTORE DUP2 ADD SWAP1 PUSH3 0x37 SWAP2 SWAP1 PUSH3 0xB5 JUMP JUMPDEST DUP1 PUSH1 0x2 PUSH1 0x0 PUSH2 0x100 EXP DUP2 SLOAD DUP2 PUSH20 0xFFFFFFFFFFFFFFFFFFFFFFFFFFFFFFFFFFFFFFFF MUL NOT AND SWAP1 DUP4 PUSH20 0xFFFFFFFFFFFFFFFFFFFFFFFFFFFFFFFFFFFFFFFF AND MUL OR SWAP1 SSTORE POP DUP2 PUSH1 0x3 DUP2 SWAP1 SSTORE POP POP POP PUSH3 0x168 JUMP JUMPDEST PUSH1 0x0 DUP2 MLOAD SWAP1 POP PUSH3 0x98 DUP2 PUSH3 0x134 JUMP JUMPDEST SWAP3 SWAP2 POP POP JUMP JUMPDEST PUSH1 0x0 DUP2 MLOAD SWAP1 POP PUSH3 0xAF DUP2 PUSH3 0x14E JUMP JUMPDEST SWAP3 SWAP2 POP POP JUMP JUMPDEST PUSH1 0x0 DUP1 PUSH1 0x40 DUP4 DUP6 SUB SLT ISZERO PUSH3 0xC9 JUMPI PUSH1 0x0 DUP1 REVERT JUMPDEST PUSH1 0x0 PUSH3 0xD9 DUP6 DUP3 DUP7 ADD PUSH3 0x9E JUMP JUMPDEST SWAP3 POP POP PUSH1 0x20 PUSH3 0xEC DUP6 DUP3 DUP7 ADD PUSH3 0x87 JUMP JUMPDEST SWAP2 POP POP SWAP3 POP SWAP3 SWAP1 POP JUMP JUMPDEST PUSH1 0x0 PUSH3 0x103 DUP3 PUSH3 0x10A JUMP JUMPDEST SWAP1 POP SWAP2 SWAP1 POP JUMP JUMPDEST PUSH1 0x0 PUSH20 0xFFFFFFFFFFFFFFFFFFFFFFFFFFFFFFFFFFFFFFFF DUP3 AND SWAP1 POP SWAP2 SWAP1 POP JUMP JUMPDEST PUSH1 0x0 DUP2 SWAP1 POP SWAP2 SWAP1 POP JUMP JUMPDEST PUSH3 0x13F DUP2 PUSH3 0xF6 JUMP JUMPDEST DUP2 EQ PUSH3 0x14B JUMPI PUSH1 0x0 DUP1 REVERT JUMPDEST POP JUMP JUMPDEST PUSH3 0x159 DUP2 PUSH3 0x12A JUMP JUMPDEST DUP2 EQ PUSH3 0x165 JUMPI PUSH1 0x0 DUP1 REVERT JUMPDEST POP JUMP JUMPDEST PUSH2 0xD40 DUP1 PUSH3 0x178 PUSH1 0x0 CODECOPY PUSH1 0x0 RETURN INVALID PUSH1 0x80 PUSH1 0x40 MSTORE PUSH1 0x4 CALLDATASIZE LT PUSH2 0x91 JUMPI PUSH1 0x0 CALLDATALOAD PUSH1 0xE0 SHR DUP1 PUSH4 0x8A9CFD55 GT PUSH2 0x59 JUMPI DUP1 PUSH4 0x8A9CFD55 EQ PUSH2 0x193 JUMPI DUP1 PUSH4 0x937E09B1 EQ PUSH2 0x1BC JUMPI DUP1 PUSH4 0x9FB42B1F EQ PUSH2 0x1E7 JUMPI DUP1 PUSH4 0xD7BB99BA EQ PUSH2 0x212 JUMPI DUP1 PUSH4 0xD7D1BBDB EQ PUSH2 0x21C JUMPI PUSH2 0x91 JUMP JUMPDEST DUP1 PUSH4 0x3441006 EQ PUSH2 0x96 JUMPI DUP1 PUSH4 0xA144391 EQ PUSH2 0xBF JUMPI DUP1 PUSH4 0x481C6A75 EQ PUSH2 0xFC JUMPI DUP1 PUSH4 0x81D12C58 EQ PUSH2 0x127 JUMPI DUP1 PUSH4 0x82FDE093 EQ PUSH2 0x168 JUMPI JUMPDEST PUSH1 0x0 DUP1 REVERT JUMPDEST CALLVALUE DUP1 ISZERO PUSH2 0xA2 JUMPI PUSH1 0x0 DUP1 REVERT JUMPDEST POP PUSH2 0xBD PUSH1 0x4 DUP1 CALLDATASIZE SUB DUP2 ADD SWAP1 PUSH2 0xB8 SWAP2 SWAP1 PUSH2 0x8C4 JUMP JUMPDEST PUSH2 0x245 JUMP JUMPDEST STOP JUMPDEST CALLVALUE DUP1 ISZERO PUSH2 0xCB JUMPI PUSH1 0x0 DUP1 REVERT JUMPDEST POP PUSH2 0xE6 PUSH1 0x4 DUP1 CALLDATASIZE SUB DUP2 ADD SWAP1 PUSH2 0xE1 SWAP2 SWAP1 PUSH2 0x834 JUMP JUMPDEST PUSH2 0x380 JUMP JUMPDEST PUSH1 0x40 MLOAD PUSH2 0xF3 SWAP2 SWAP1 PUSH2 0x97D JUMP JUMPDEST PUSH1 0x40 MLOAD DUP1 SWAP2 SUB SWAP1 RETURN JUMPDEST CALLVALUE DUP1 ISZERO PUSH2 0x108 JUMPI PUSH1 0x0 DUP1 REVERT JUMPDEST POP PUSH2 0x111 PUSH2 0x3A0 JUMP JUMPDEST PUSH1 0x40 MLOAD PUSH2 0x11E SWAP2 SWAP1 PUSH2 0x962 JUMP JUMPDEST PUSH1 0x40 MLOAD DUP1 SWAP2 SUB SWAP1 RETURN JUMPDEST CALLVALUE DUP1 ISZERO PUSH2 0x133 JUMPI PUSH1 0x0 DUP1 REVERT JUMPDEST POP PUSH2 0x14E PUSH1 0x4 DUP1 CALLDATASIZE SUB DUP2 ADD SWAP1 PUSH2 0x149 SWAP2 SWAP1 PUSH2 0x8C4 JUMP JUMPDEST PUSH2 0x3C6 JUMP JUMPDEST PUSH1 0x40 MLOAD PUSH2 0x15F SWAP6 SWAP5 SWAP4 SWAP3 SWAP2 SWAP1 PUSH2 0x998 JUMP JUMPDEST PUSH1 0x40 MLOAD DUP1 SWAP2 SUB SWAP1 RETURN JUMPDEST CALLVALUE DUP1 ISZERO PUSH2 0x174 JUMPI PUSH1 0x0 DUP1 REVERT JUMPDEST POP PUSH2 0x17D PUSH2 0x4B1 JUMP JUMPDEST PUSH1 0x40 MLOAD PUSH2 0x18A SWAP2 SWAP1 PUSH2 0x9F2 JUMP JUMPDEST PUSH1 0x40 MLOAD DUP1 SWAP2 SUB SWAP1 RETURN JUMPDEST CALLVALUE DUP1 ISZERO PUSH2 0x19F JUMPI PUSH1 0x0 DUP1 REVERT JUMPDEST POP PUSH2 0x1BA PUSH1 0x4 DUP1 CALLDATASIZE SUB DUP2 ADD SWAP1 PUSH2 0x1B5 SWAP2 SWAP1 PUSH2 0x85D JUMP JUMPDEST PUSH2 0x4B7 JUMP JUMPDEST STOP JUMPDEST CALLVALUE DUP1 ISZERO PUSH2 0x1C8 JUMPI PUSH1 0x0 DUP1 REVERT JUMPDEST POP PUSH2 0x1D1 PUSH2 0x5CF JUMP JUMPDEST PUSH1 0x40 MLOAD PUSH2 0x1DE SWAP2 SWAP1 PUSH2 0x9F2 JUMP JUMPDEST PUSH1 0x40 MLOAD DUP1 SWAP2 SUB SWAP1 RETURN JUMPDEST CALLVALUE DUP1 ISZERO PUSH2 0x1F3 JUMPI PUSH1 0x0 DUP1 REVERT JUMPDEST POP PUSH2 0x1FC PUSH2 0x5D5 JUMP JUMPDEST PUSH1 0x40 MLOAD PUSH2 0x209 SWAP2 SWAP1 PUSH2 0x9F2 JUMP JUMPDEST PUSH1 0x40 MLOAD DUP1 SWAP2 SUB SWAP1 RETURN JUMPDEST PUSH2 0x21A PUSH2 0x5DB JUMP JUMPDEST STOP JUMPDEST CALLVALUE DUP1 ISZERO PUSH2 0x228 JUMPI PUSH1 0x0 DUP1 REVERT JUMPDEST POP PUSH2 0x243 PUSH1 0x4 DUP1 CALLDATASIZE SUB DUP2 ADD SWAP1 PUSH2 0x23E SWAP2 SWAP1 PUSH2 0x8C4 JUMP JUMPDEST PUSH2 0x65B JUMP JUMPDEST STOP JUMPDEST PUSH1 0x2 PUSH1 0x0 SWAP1 SLOAD SWAP1 PUSH2 0x100 EXP SWAP1 DIV PUSH20 0xFFFFFFFFFFFFFFFFFFFFFFFFFFFFFFFFFFFFFFFF AND PUSH20 0xFFFFFFFFFFFFFFFFFFFFFFFFFFFFFFFFFFFFFFFF AND CALLER PUSH20 0xFFFFFFFFFFFFFFFFFFFFFFFFFFFFFFFFFFFFFFFF AND EQ PUSH2 0x29F JUMPI PUSH1 0x0 DUP1 REVERT JUMPDEST PUSH1 0x0 PUSH1 0x1 PUSH1 0x0 DUP4 DUP2 MSTORE PUSH1 0x20 ADD SWAP1 DUP2 MSTORE PUSH1 0x20 ADD PUSH1 0x0 KECCAK256 SWAP1 POP PUSH1 0x2 PUSH1 0x5 SLOAD PUSH2 0x2C5 SWAP2 SWAP1 PUSH2 0xA7F JUMP JUMPDEST DUP2 PUSH1 0x3 ADD SLOAD GT PUSH2 0x2D4 JUMPI PUSH1 0x0 DUP1 REVERT JUMPDEST DUP1 PUSH1 0x2 ADD PUSH1 0x14 SWAP1 SLOAD SWAP1 PUSH2 0x100 EXP SWAP1 DIV PUSH1 0xFF AND ISZERO PUSH2 0x2F0 JUMPI PUSH1 0x0 DUP1 REVERT JUMPDEST DUP1 PUSH1 0x2 ADD PUSH1 0x0 SWAP1 SLOAD SWAP1 PUSH2 0x100 EXP SWAP1 DIV PUSH20 0xFFFFFFFFFFFFFFFFFFFFFFFFFFFFFFFFFFFFFFFF AND PUSH20 0xFFFFFFFFFFFFFFFFFFFFFFFFFFFFFFFFFFFFFFFF AND PUSH2 0x8FC DUP3 PUSH1 0x1 ADD SLOAD SWAP1 DUP2 ISZERO MUL SWAP1 PUSH1 0x40 MLOAD PUSH1 0x0 PUSH1 0x40 MLOAD DUP1 DUP4 SUB DUP2 DUP6 DUP9 DUP9 CALL SWAP4 POP POP POP POP ISZERO DUP1 ISZERO PUSH2 0x35E JUMPI RETURNDATASIZE PUSH1 0x0 DUP1 RETURNDATACOPY RETURNDATASIZE PUSH1 0x0 REVERT JUMPDEST POP PUSH1 0x1 DUP2 PUSH1 0x2 ADD PUSH1 0x14 PUSH2 0x100 EXP DUP2 SLOAD DUP2 PUSH1 0xFF MUL NOT AND SWAP1 DUP4 ISZERO ISZERO MUL OR SWAP1 SSTORE POP POP POP JUMP JUMPDEST PUSH1 0x4 PUSH1 0x20 MSTORE DUP1 PUSH1 0x0 MSTORE PUSH1 0x40 PUSH1 0x0 KECCAK256 PUSH1 0x0 SWAP2 POP SLOAD SWAP1 PUSH2 0x100 EXP SWAP1 DIV PUSH1 0xFF AND DUP2 JUMP JUMPDEST PUSH1 0x2 PUSH1 0x0 SWAP1 SLOAD SWAP1 PUSH2 0x100 EXP SWAP1 DIV PUSH20 0xFFFFFFFFFFFFFFFFFFFFFFFFFFFFFFFFFFFFFFFF AND DUP2 JUMP JUMPDEST PUSH1 0x1 PUSH1 0x20 MSTORE DUP1 PUSH1 0x0 MSTORE PUSH1 0x40 PUSH1 0x0 KECCAK256 PUSH1 0x0 SWAP2 POP SWAP1 POP DUP1 PUSH1 0x0 ADD DUP1 SLOAD PUSH2 0x3E9 SWAP1 PUSH2 0xB4C JUMP JUMPDEST DUP1 PUSH1 0x1F ADD PUSH1 0x20 DUP1 SWAP2 DIV MUL PUSH1 0x20 ADD PUSH1 0x40 MLOAD SWAP1 DUP2 ADD PUSH1 0x40 MSTORE DUP1 SWAP3 SWAP2 SWAP1 DUP2 DUP2 MSTORE PUSH1 0x20 ADD DUP3 DUP1 SLOAD PUSH2 0x415 SWAP1 PUSH2 0xB4C JUMP JUMPDEST DUP1 ISZERO PUSH2 0x462 JUMPI DUP1 PUSH1 0x1F LT PUSH2 0x437 JUMPI PUSH2 0x100 DUP1 DUP4 SLOAD DIV MUL DUP4 MSTORE SWAP2 PUSH1 0x20 ADD SWAP2 PUSH2 0x462 JUMP JUMPDEST DUP3 ADD SWAP2 SWAP1 PUSH1 0x0 MSTORE PUSH1 0x20 PUSH1 0x0 KECCAK256 SWAP1 JUMPDEST DUP2 SLOAD DUP2 MSTORE SWAP1 PUSH1 0x1 ADD SWAP1 PUSH1 0x20 ADD DUP1 DUP4 GT PUSH2 0x445 JUMPI DUP3 SWAP1 SUB PUSH1 0x1F AND DUP3 ADD SWAP2 JUMPDEST POP POP POP POP POP SWAP1 DUP1 PUSH1 0x1 ADD SLOAD SWAP1 DUP1 PUSH1 0x2 ADD PUSH1 0x0 SWAP1 SLOAD SWAP1 PUSH2 0x100 EXP SWAP1 DIV PUSH20 0xFFFFFFFFFFFFFFFFFFFFFFFFFFFFFFFFFFFFFFFF AND SWAP1 DUP1 PUSH1 0x2 ADD PUSH1 0x14 SWAP1 SLOAD SWAP1 PUSH2 0x100 EXP SWAP1 DIV PUSH1 0xFF AND SWAP1 DUP1 PUSH1 0x3 ADD SLOAD SWAP1 POP DUP6 JUMP JUMPDEST PUSH1 0x5 SLOAD DUP2 JUMP JUMPDEST PUSH1 0x2 PUSH1 0x0 SWAP1 SLOAD SWAP1 PUSH2 0x100 EXP SWAP1 DIV PUSH20 0xFFFFFFFFFFFFFFFFFFFFFFFFFFFFFFFFFFFFFFFF AND PUSH20 0xFFFFFFFFFFFFFFFFFFFFFFFFFFFFFFFFFFFFFFFF AND CALLER PUSH20 0xFFFFFFFFFFFFFFFFFFFFFFFFFFFFFFFFFFFFFFFF AND EQ PUSH2 0x511 JUMPI PUSH1 0x0 DUP1 REVERT JUMPDEST PUSH1 0x0 PUSH1 0x1 PUSH1 0x0 DUP1 PUSH1 0x0 DUP2 SLOAD DUP1 SWAP3 SWAP2 SWAP1 PUSH2 0x529 SWAP1 PUSH2 0xBAF JUMP JUMPDEST SWAP2 SWAP1 POP SSTORE DUP2 MSTORE PUSH1 0x20 ADD SWAP1 DUP2 MSTORE PUSH1 0x20 ADD PUSH1 0x0 KECCAK256 SWAP1 POP DUP4 DUP2 PUSH1 0x0 ADD SWAP1 DUP1 MLOAD SWAP1 PUSH1 0x20 ADD SWAP1 PUSH2 0x555 SWAP3 SWAP2 SWAP1 PUSH2 0x6EA JUMP JUMPDEST POP DUP3 DUP2 PUSH1 0x1 ADD DUP2 SWAP1 SSTORE POP DUP2 DUP2 PUSH1 0x2 ADD PUSH1 0x0 PUSH2 0x100 EXP DUP2 SLOAD DUP2 PUSH20 0xFFFFFFFFFFFFFFFFFFFFFFFFFFFFFFFFFFFFFFFF MUL NOT AND SWAP1 DUP4 PUSH20 0xFFFFFFFFFFFFFFFFFFFFFFFFFFFFFFFFFFFFFFFF AND MUL OR SWAP1 SSTORE POP PUSH1 0x0 DUP2 PUSH1 0x2 ADD PUSH1 0x14 PUSH2 0x100 EXP DUP2 SLOAD DUP2 PUSH1 0xFF MUL NOT AND SWAP1 DUP4 ISZERO ISZERO MUL OR SWAP1 SSTORE POP PUSH1 0x0 DUP2 PUSH1 0x3 ADD DUP2 SWAP1 SSTORE POP POP POP POP POP JUMP JUMPDEST PUSH1 0x3 SLOAD DUP2 JUMP JUMPDEST PUSH1 0x0 SLOAD DUP2 JUMP JUMPDEST PUSH1 0x3 SLOAD CALLVALUE GT PUSH2 0x5E9 JUMPI PUSH1 0x0 DUP1 REVERT JUMPDEST PUSH1 0x1 PUSH1 0x4 PUSH1 0x0 CALLER PUSH20 0xFFFFFFFFFFFFFFFFFFFFFFFFFFFFFFFFFFFFFFFF AND PUSH20 0xFFFFFFFFFFFFFFFFFFFFFFFFFFFFFFFFFFFFFFFF AND DUP2 MSTORE PUSH1 0x20 ADD SWAP1 DUP2 MSTORE PUSH1 0x20 ADD PUSH1 0x0 KECCAK256 PUSH1 0x0 PUSH2 0x100 EXP DUP2 SLOAD DUP2 PUSH1 0xFF MUL NOT AND SWAP1 DUP4 ISZERO ISZERO MUL OR SWAP1 SSTORE POP PUSH1 0x5 PUSH1 0x0 DUP2 SLOAD DUP1 SWAP3 SWAP2 SWAP1 PUSH2 0x654 SWAP1 PUSH2 0xBAF JUMP JUMPDEST SWAP2 SWAP1 POP SSTORE POP JUMP JUMPDEST PUSH1 0x0 PUSH1 0x1 PUSH1 0x0 DUP4 DUP2 MSTORE PUSH1 0x20 ADD SWAP1 DUP2 MSTORE PUSH1 0x20 ADD PUSH1 0x0 KECCAK256 SWAP1 POP PUSH1 0x1 DUP2 PUSH1 0x4 ADD PUSH1 0x0 CALLER PUSH20 0xFFFFFFFFFFFFFFFFFFFFFFFFFFFFFFFFFFFFFFFF AND PUSH20 0xFFFFFFFFFFFFFFFFFFFFFFFFFFFFFFFFFFFFFFFF AND DUP2 MSTORE PUSH1 0x20 ADD SWAP1 DUP2 MSTORE PUSH1 0x20 ADD PUSH1 0x0 KECCAK256 PUSH1 0x0 PUSH2 0x100 EXP DUP2 SLOAD DUP2 PUSH1 0xFF MUL NOT AND SWAP1 DUP4 ISZERO ISZERO MUL OR SWAP1 SSTORE POP DUP1 PUSH1 0x3 ADD PUSH1 0x0 DUP2 SLOAD DUP1 SWAP3 SWAP2 SWAP1 PUSH2 0x6E1 SWAP1 PUSH2 0xBAF JUMP JUMPDEST SWAP2 SWAP1 POP SSTORE POP POP POP JUMP JUMPDEST DUP3 DUP1 SLOAD PUSH2 0x6F6 SWAP1 PUSH2 0xB4C JUMP JUMPDEST SWAP1 PUSH1 0x0 MSTORE PUSH1 0x20 PUSH1 0x0 KECCAK256 SWAP1 PUSH1 0x1F ADD PUSH1 0x20 SWAP1 DIV DUP2 ADD SWAP3 DUP3 PUSH2 0x718 JUMPI PUSH1 0x0 DUP6 SSTORE PUSH2 0x75F JUMP JUMPDEST DUP3 PUSH1 0x1F LT PUSH2 0x731 JUMPI DUP1 MLOAD PUSH1 0xFF NOT AND DUP4 DUP1 ADD OR DUP6 SSTORE PUSH2 0x75F JUMP JUMPDEST DUP3 DUP1 ADD PUSH1 0x1 ADD DUP6 SSTORE DUP3 ISZERO PUSH2 0x75F JUMPI SWAP2 DUP3 ADD JUMPDEST DUP3 DUP2 GT ISZERO PUSH2 0x75E JUMPI DUP3 MLOAD DUP3 SSTORE SWAP2 PUSH1 0x20 ADD SWAP2 SWAP1 PUSH1 0x1 ADD SWAP1 PUSH2 0x743 JUMP JUMPDEST JUMPDEST POP SWAP1 POP PUSH2 0x76C SWAP2 SWAP1 PUSH2 0x770 JUMP JUMPDEST POP SWAP1 JUMP JUMPDEST JUMPDEST DUP1 DUP3 GT ISZERO PUSH2 0x789 JUMPI PUSH1 0x0 DUP2 PUSH1 0x0 SWAP1 SSTORE POP PUSH1 0x1 ADD PUSH2 0x771 JUMP JUMPDEST POP SWAP1 JUMP JUMPDEST PUSH1 0x0 PUSH2 0x7A0 PUSH2 0x79B DUP5 PUSH2 0xA32 JUMP JUMPDEST PUSH2 0xA0D JUMP JUMPDEST SWAP1 POP DUP3 DUP2 MSTORE PUSH1 0x20 DUP2 ADD DUP5 DUP5 DUP5 ADD GT ISZERO PUSH2 0x7B8 JUMPI PUSH1 0x0 DUP1 REVERT JUMPDEST PUSH2 0x7C3 DUP5 DUP3 DUP6 PUSH2 0xB0A JUMP JUMPDEST POP SWAP4 SWAP3 POP POP POP JUMP JUMPDEST PUSH1 0x0 DUP2 CALLDATALOAD SWAP1 POP PUSH2 0x7DA DUP2 PUSH2 0xCC5 JUMP JUMPDEST SWAP3 SWAP2 POP POP JUMP JUMPDEST PUSH1 0x0 DUP2 CALLDATALOAD SWAP1 POP PUSH2 0x7EF DUP2 PUSH2 0xCDC JUMP JUMPDEST SWAP3 SWAP2 POP POP JUMP JUMPDEST PUSH1 0x0 DUP3 PUSH1 0x1F DUP4 ADD SLT PUSH2 0x806 JUMPI PUSH1 0x0 DUP1 REVERT JUMPDEST DUP2 CALLDATALOAD PUSH2 0x816 DUP5 DUP3 PUSH1 0x20 DUP7 ADD PUSH2 0x78D JUMP JUMPDEST SWAP2 POP POP SWAP3 SWAP2 POP POP JUMP JUMPDEST PUSH1 0x0 DUP2 CALLDATALOAD SWAP1 POP PUSH2 0x82E DUP2 PUSH2 0xCF3 JUMP JUMPDEST SWAP3 SWAP2 POP POP JUMP JUMPDEST PUSH1 0x0 PUSH1 0x20 DUP3 DUP5 SUB SLT ISZERO PUSH2 0x846 JUMPI PUSH1 0x0 DUP1 REVERT JUMPDEST PUSH1 0x0 PUSH2 0x854 DUP5 DUP3 DUP6 ADD PUSH2 0x7CB JUMP JUMPDEST SWAP2 POP POP SWAP3 SWAP2 POP POP JUMP JUMPDEST PUSH1 0x0 DUP1 PUSH1 0x0 PUSH1 0x60 DUP5 DUP7 SUB SLT ISZERO PUSH2 0x872 JUMPI PUSH1 0x0 DUP1 REVERT JUMPDEST PUSH1 0x0 DUP5 ADD CALLDATALOAD PUSH8 0xFFFFFFFFFFFFFFFF DUP2 GT ISZERO PUSH2 0x88C JUMPI PUSH1 0x0 DUP1 REVERT JUMPDEST PUSH2 0x898 DUP7 DUP3 DUP8 ADD PUSH2 0x7F5 JUMP JUMPDEST SWAP4 POP POP PUSH1 0x20 PUSH2 0x8A9 DUP7 DUP3 DUP8 ADD PUSH2 0x81F JUMP JUMPDEST SWAP3 POP POP PUSH1 0x40 PUSH2 0x8BA DUP7 DUP3 DUP8 ADD PUSH2 0x7E0 JUMP JUMPDEST SWAP2 POP POP SWAP3 POP SWAP3 POP SWAP3 JUMP JUMPDEST PUSH1 0x0 PUSH1 0x20 DUP3 DUP5 SUB SLT ISZERO PUSH2 0x8D6 JUMPI PUSH1 0x0 DUP1 REVERT JUMPDEST PUSH1 0x0 PUSH2 0x8E4 DUP5 DUP3 DUP6 ADD PUSH2 0x81F JUMP JUMPDEST SWAP2 POP POP SWAP3 SWAP2 POP POP JUMP JUMPDEST PUSH2 0x8F6 DUP2 PUSH2 0xAC2 JUMP JUMPDEST DUP3 MSTORE POP POP JUMP JUMPDEST PUSH2 0x905 DUP2 PUSH2 0xAB0 JUMP JUMPDEST DUP3 MSTORE POP POP JUMP JUMPDEST PUSH2 0x914 DUP2 PUSH2 0xAD4 JUMP JUMPDEST DUP3 MSTORE POP POP JUMP JUMPDEST PUSH1 0x0 PUSH2 0x925 DUP3 PUSH2 0xA63 JUMP JUMPDEST PUSH2 0x92F DUP2 DUP6 PUSH2 0xA6E JUMP JUMPDEST SWAP4 POP PUSH2 0x93F DUP2 DUP6 PUSH1 0x20 DUP7 ADD PUSH2 0xB19 JUMP JUMPDEST PUSH2 0x948 DUP2 PUSH2 0xCB4 JUMP JUMPDEST DUP5 ADD SWAP2 POP POP SWAP3 SWAP2 POP POP JUMP JUMPDEST PUSH2 0x95C DUP2 PUSH2 0xB00 JUMP JUMPDEST DUP3 MSTORE POP POP JUMP JUMPDEST PUSH1 0x0 PUSH1 0x20 DUP3 ADD SWAP1 POP PUSH2 0x977 PUSH1 0x0 DUP4 ADD DUP5 PUSH2 0x8FC JUMP JUMPDEST SWAP3 SWAP2 POP POP JUMP JUMPDEST PUSH1 0x0 PUSH1 0x20 DUP3 ADD SWAP1 POP PUSH2 0x992 PUSH1 0x0 DUP4 ADD DUP5 PUSH2 0x90B JUMP JUMPDEST SWAP3 SWAP2 POP POP JUMP JUMPDEST PUSH1 0x0 PUSH1 0xA0 DUP3 ADD SWAP1 POP DUP2 DUP2 SUB PUSH1 0x0 DUP4 ADD MSTORE PUSH2 0x9B2 DUP2 DUP9 PUSH2 0x91A JUMP JUMPDEST SWAP1 POP PUSH2 0x9C1 PUSH1 0x20 DUP4 ADD DUP8 PUSH2 0x953 JUMP JUMPDEST PUSH2 0x9CE PUSH1 0x40 DUP4 ADD DUP7 PUSH2 0x8ED JUMP JUMPDEST PUSH2 0x9DB PUSH1 0x60 DUP4 ADD DUP6 PUSH2 0x90B JUMP JUMPDEST PUSH2 0x9E8 PUSH1 0x80 DUP4 ADD DUP5 PUSH2 0x953 JUMP JUMPDEST SWAP7 SWAP6 POP POP POP POP POP POP JUMP JUMPDEST PUSH1 0x0 PUSH1 0x20 DUP3 ADD SWAP1 POP PUSH2 0xA07 PUSH1 0x0 DUP4 ADD DUP5 PUSH2 0x953 JUMP JUMPDEST SWAP3 SWAP2 POP POP JUMP JUMPDEST PUSH1 0x0 PUSH2 0xA17 PUSH2 0xA28 JUMP JUMPDEST SWAP1 POP PUSH2 0xA23 DUP3 DUP3 PUSH2 0xB7E JUMP JUMPDEST SWAP2 SWAP1 POP JUMP JUMPDEST PUSH1 0x0 PUSH1 0x40 MLOAD SWAP1 POP SWAP1 JUMP JUMPDEST PUSH1 0x0 PUSH8 0xFFFFFFFFFFFFFFFF DUP3 GT ISZERO PUSH2 0xA4D JUMPI PUSH2 0xA4C PUSH2 0xC85 JUMP JUMPDEST JUMPDEST PUSH2 0xA56 DUP3 PUSH2 0xCB4 JUMP JUMPDEST SWAP1 POP PUSH1 0x20 DUP2 ADD SWAP1 POP SWAP2 SWAP1 POP JUMP JUMPDEST PUSH1 0x0 DUP2 MLOAD SWAP1 POP SWAP2 SWAP1 POP JUMP JUMPDEST PUSH1 0x0 DUP3 DUP3 MSTORE PUSH1 0x20 DUP3 ADD SWAP1 POP SWAP3 SWAP2 POP POP JUMP JUMPDEST PUSH1 0x0 PUSH2 0xA8A DUP3 PUSH2 0xB00 JUMP JUMPDEST SWAP2 POP PUSH2 0xA95 DUP4 PUSH2 0xB00 JUMP JUMPDEST SWAP3 POP DUP3 PUSH2 0xAA5 JUMPI PUSH2 0xAA4 PUSH2 0xC27 JUMP JUMPDEST JUMPDEST DUP3 DUP3 DIV SWAP1 POP SWAP3 SWAP2 POP POP JUMP JUMPDEST PUSH1 0x0 PUSH2 0xABB DUP3 PUSH2 0xAE0 JUMP JUMPDEST SWAP1 POP SWAP2 SWAP1 POP JUMP JUMPDEST PUSH1 0x0 PUSH2 0xACD DUP3 PUSH2 0xAE0 JUMP JUMPDEST SWAP1 POP SWAP2 SWAP1 POP JUMP JUMPDEST PUSH1 0x0 DUP2 ISZERO ISZERO SWAP1 POP SWAP2 SWAP1 POP JUMP JUMPDEST PUSH1 0x0 PUSH20 0xFFFFFFFFFFFFFFFFFFFFFFFFFFFFFFFFFFFFFFFF DUP3 AND SWAP1 POP SWAP2 SWAP1 POP JUMP JUMPDEST PUSH1 0x0 DUP2 SWAP1 POP SWAP2 SWAP1 POP JUMP JUMPDEST DUP3 DUP2 DUP4 CALLDATACOPY PUSH1 0x0 DUP4 DUP4 ADD MSTORE POP POP POP JUMP JUMPDEST PUSH1 0x0 JUMPDEST DUP4 DUP2 LT ISZERO PUSH2 0xB37 JUMPI DUP1 DUP3 ADD MLOAD DUP2 DUP5 ADD MSTORE PUSH1 0x20 DUP2 ADD SWAP1 POP PUSH2 0xB1C JUMP JUMPDEST DUP4 DUP2 GT ISZERO PUSH2 0xB46 JUMPI PUSH1 0x0 DUP5 DUP5 ADD MSTORE JUMPDEST POP POP POP POP JUMP JUMPDEST PUSH1 0x0 PUSH1 0x2 DUP3 DIV SWAP1 POP PUSH1 0x1 DUP3 AND DUP1 PUSH2 0xB64 JUMPI PUSH1 0x7F DUP3 AND SWAP2 POP JUMPDEST PUSH1 0x20 DUP3 LT DUP2 EQ ISZERO PUSH2 0xB78 JUMPI PUSH2 0xB77 PUSH2 0xC56 JUMP JUMPDEST JUMPDEST POP SWAP2 SWAP1 POP JUMP JUMPDEST PUSH2 0xB87 DUP3 PUSH2 0xCB4 JUMP JUMPDEST DUP2 ADD DUP2 DUP2 LT PUSH8 0xFFFFFFFFFFFFFFFF DUP3 GT OR ISZERO PUSH2 0xBA6 JUMPI PUSH2 0xBA5 PUSH2 0xC85 JUMP JUMPDEST JUMPDEST DUP1 PUSH1 0x40 MSTORE POP POP POP JUMP JUMPDEST PUSH1 0x0 PUSH2 0xBBA DUP3 PUSH2 0xB00 JUMP JUMPDEST SWAP2 POP PUSH32 0xFFFFFFFFFFFFFFFFFFFFFFFFFFFFFFFFFFFFFFFFFFFFFFFFFFFFFFFFFFFFFFFF DUP3 EQ ISZERO PUSH2 0xBED JUMPI PUSH2 0xBEC PUSH2 0xBF8 JUMP JUMPDEST JUMPDEST PUSH1 0x1 DUP3 ADD SWAP1 POP SWAP2 SWAP1 POP JUMP JUMPDEST PUSH32 0x4E487B7100000000000000000000000000000000000000000000000000000000 PUSH1 0x0 MSTORE PUSH1 0x11 PUSH1 0x4 MSTORE PUSH1 0x24 PUSH1 0x0 REVERT JUMPDEST PUSH32 0x4E487B7100000000000000000000000000000000000000000000000000000000 PUSH1 0x0 MSTORE PUSH1 0x12 PUSH1 0x4 MSTORE PUSH1 0x24 PUSH1 0x0 REVERT JUMPDEST PUSH32 0x4E487B7100000000000000000000000000000000000000000000000000000000 PUSH1 0x0 MSTORE PUSH1 0x22 PUSH1 0x4 MSTORE PUSH1 0x24 PUSH1 0x0 REVERT JUMPDEST PUSH32 0x4E487B7100000000000000000000000000000000000000000000000000000000 PUSH1 0x0 MSTORE PUSH1 0x41 PUSH1 0x4 MSTORE PUSH1 0x24 PUSH1 0x0 REVERT JUMPDEST PUSH1 0x0 PUSH1 0x1F NOT PUSH1 0x1F DUP4 ADD AND SWAP1 POP SWAP2 SWAP1 POP JUMP JUMPDEST PUSH2 0xCCE DUP2 PUSH2 0xAB0 JUMP JUMPDEST DUP2 EQ PUSH2 0xCD9 JUMPI PUSH1 0x0 DUP1 REVERT JUMPDEST POP JUMP JUMPDEST PUSH2 0xCE5 DUP2 PUSH2 0xAC2 JUMP JUMPDEST DUP2 EQ PUSH2 0xCF0 JUMPI PUSH1 0x0 DUP1 REVERT JUMPDEST POP JUMP JUMPDEST PUSH2 0xCFC DUP2 PUSH2 0xB00 JUMP JUMPDEST DUP2 EQ PUSH2 0xD07 JUMPI PUSH1 0x0 DUP1 REVERT JUMPDEST POP JUMP INVALID LOG2 PUSH5 0x6970667358 0x22 SLT KECCAK256 RETURN 0xED 0x5F CALLVALUE PUSH21 0x97DE848CB0A940BA27CBD0A55DC8EB100B853BF364 0xCB 0xBD 0xBB 0x2D PUSH19 0x9964736F6C6343000804003300000000000000 "
    },
    "gasEstimates": {
      "creation": {
        "codeDepositCost": "678400",
        "executionCost": "infinite",
        "totalCost": "infinite"
      },
      "external": {
        "approveRequest(uint256)": "infinite",
        "approvers(address)": "1568",
        "approversCount()": "1218",
        "contribute()": "42924",
        "createRequest(string,uint256,address)": "infinite",
        "finalizeRequest(uint256)": "infinite",
        "manager()": "1259",
        "minimumContribution()": "1151",
        "numRequests()": "1173",
        "requests(uint256)": "infinite"
      }
    },
    "methodIdentifiers": {
      "approveRequest(uint256)": "d7d1bbdb",
      "approvers(address)": "0a144391",
      "approversCount()": "82fde093",
      "contribute()": "d7bb99ba",
      "createRequest(string,uint256,address)": "8a9cfd55",
      "finalizeRequest(uint256)": "03441006",
      "manager()": "481c6a75",
      "minimumContribution()": "937e09b1",
      "numRequests()": "9fb42b1f",
      "requests(uint256)": "81d12c58"
    }
  },
  "storageLayout": {
    "storage": [
      {
        "astId": 56,
        "contract": "Campaign.sol:Campaign",
        "label": "numRequests",
        "offset": 0,
        "slot": "0",
        "type": "t_uint256"
      },
      {
        "astId": 61,
        "contract": "Campaign.sol:Campaign",
        "label": "requests",
        "offset": 0,
        "slot": "1",
        "type": "t_mapping(t_uint256,t_struct(Request)54_storage)"
      },
      {
        "astId": 63,
        "contract": "Campaign.sol:Campaign",
        "label": "manager",
        "offset": 0,
        "slot": "2",
        "type": "t_address"
      },
      {
        "astId": 65,
        "contract": "Campaign.sol:Campaign",
        "label": "minimumContribution",
        "offset": 0,
        "slot": "3",
        "type": "t_uint256"
      },
      {
        "astId": 69,
        "contract": "Campaign.sol:Campaign",
        "label": "approvers",
        "offset": 0,
        "slot": "4",
        "type": "t_mapping(t_address,t_bool)"
      },
      {
        "astId": 71,
        "contract": "Campaign.sol:Campaign",
        "label": "approversCount",
        "offset": 0,
        "slot": "5",
        "type": "t_uint256"
      }
    ],
    "types": {
      "t_address": {
        "encoding": "inplace",
        "label": "address",
        "numberOfBytes": "20"
      },
      "t_address_payable": {
        "encoding": "inplace",
        "label": "address payable",
        "numberOfBytes": "20"
      },
      "t_bool": {
        "encoding": "inplace",
        "label": "bool",
        "numberOfBytes": "1"
      },
      "t_mapping(t_address,t_bool)": {
        "encoding": "mapping",
        "key": "t_address",
        "label": "mapping(address => bool)",
        "numberOfBytes": "32",
        "value": "t_bool"
      },
      "t_mapping(t_uint256,t_struct(Request)54_storage)": {
        "encoding": "mapping",
        "key": "t_uint256",
        "label": "mapping(uint256 => struct Campaign.Request)",
        "numberOfBytes": "32",
        "value": "t_struct(Request)54_storage"
      },
      "t_string_storage": {
        "encoding": "bytes",
        "label": "string",
        "numberOfBytes": "32"
      },
      "t_struct(Request)54_storage": {
        "encoding": "inplace",
        "label": "struct Campaign.Request",
        "members": [
          {
            "astId": 41,
            "contract": "Campaign.sol:Campaign",
            "label": "description",
            "offset": 0,
            "slot": "0",
            "type": "t_string_storage"
          },
          {
            "astId": 43,
            "contract": "Campaign.sol:Campaign",
            "label": "value",
            "offset": 0,
            "slot": "1",
            "type": "t_uint256"
          },
          {
            "astId": 45,
            "contract": "Campaign.sol:Campaign",
            "label": "recipient",
            "offset": 0,
            "slot": "2",
            "type": "t_address_payable"
          },
          {
            "astId": 47,
            "contract": "Campaign.sol:Campaign",
            "label": "complete",
            "offset": 20,
            "slot": "2",
            "type": "t_bool"
          },
          {
            "astId": 49,
            "contract": "Campaign.sol:Campaign",
            "label": "approvalCount",
            "offset": 0,
            "slot": "3",
            "type": "t_uint256"
          },
          {
            "astId": 53,
            "contract": "Campaign.sol:Campaign",
            "label": "approvals",
            "offset": 0,
            "slot": "4",
            "type": "t_mapping(t_address,t_bool)"
          }
        ],
        "numberOfBytes": "160"
      },
      "t_uint256": {
        "encoding": "inplace",
        "label": "uint256",
        "numberOfBytes": "32"
      }
    }
  },
  "userdoc": {
    "kind": "user",
    "methods": {},
    "version": 1
  }
}